:03020000020206F1
:03025F0002020395
:03020300022309CA
:0400000002020032C6
:01000B0032C2
:0100130032BA
:01001B0032B2
:0100230032AA
:01002B0032A2
:01003300329A
:01003B003292
:01004300328A
:01004B003282
:01005300327A
:01005B003272
:01006300326A
:0101000032CC
:0101040032C8
:0101080032C4
:01010C0032C0
:0101100032BC
:0101140032B8
:0101180032B4
:0101200032AC
:0101240032A8
:0101280032A4
:01012C0032A0
:01013000329C
:010134003298
:010138003294
:01013C003290
:01014000328C
:010148003284
:01014C003280
:01015000327C
:010154003278
:010158003274
:01015C003270
:01016000326C
:01017000325C
:010174003258
:010178003254
:01017C003250
:01018000324C
:010184003248
:010188003244
:01018C003240
:01019000323C
:010194003238
:010198003234
:01019C003230
:0101A000322C
:0101A8003224
:0101AC003220
:0101B000321C
:0101B4003218
:0101B8003214
:2002620022AE82AF837C007D00C3EC9EED9F501B7AB07B04EA24FFF8EB34FFF988028903E0
:20028200E84970F00CBC00E10D80DE22AE82AF837C007D00C3EC9EED9F501B7A0A7B00EA0D
:2002A20024FFF8EB34FFF988028903E84970F00CBC00E10D80DE2275AF0790E67BE090E6BB
:2002C2007CF0DAF32222748045B2FF8FB274E645B4FF74EF5FF5B4AFB68FB6D287C2A290C0
:2002E2003A3CE4F090E6A3E0FF74FE5FF090E6A5E0FF74FE5FF090E60174E3F00000000080
:2003020090E60B7401F00000000090E6047480F00000000090E6047402F00000000090E641
:2003220004E4F00000000090E6187401F00000000090E618740DF00000000090E6207402E5
:20034200F00000000090E621E4F00000000090E6047480F00000000090E6047406F00000FE
:20036200000090E61A7401F00000000090E61A7411F00000000090E604E4F00000000090A3
:20038200E609E4F00000000090E60274CAF000000000900002120263C28722E5821392A5CD
:2003A200D2A6001392A5C2A6001392A5D2A6001392A5C2A6001392A5D2A6001392A5C2A629
:2003C200001392A5D2A6001392A5C2A6227F0090E68BE0FEC3EF9E5036EF2440F582E4346F
:2003E200E7F583E0F582C00712039DD007903A00E0FEBE0411C2A5D2A7D2A6903A00E4F084
:20040200C2A7C2A68006903A00EE04F00F80C022A2A4C2A60013A2A4D2A60013A2A4C2A626
:200422000013A2A4D2A60013A2A4C2A60013A2A4D2A60013A2A4C2A60013A2A4D2A60013B2
:20044200F5822275820022903A3BE0FF7E00C3EE9F5056903A02E07022C2A7C2A6903A01B6
:20046200E0F582C007C00612039DD006D007D2A5D2A7D2A6903A01E02401F0903A02E0045F
:200482005403F0EE2440FCE434E7FDC007C006C005C004120412AB82D004D005D006D00708
:2004A2008C828D83EBF00E80A590E68AE4F090E68BEFF0227F00BFFF00500B90E678E0FED4
:2004C20020E0030F80F090E678E0FF20E204EF20E10D90E678E0FF74404FF0758201227579
:2004E2008200227F00BFFF00500B90E678E0FE20E0030F80F090E678E0FF30E20D90E67896
:20050200E0FF74404FF075820122758200227F0090E678E0FE20E204758200220FBFFF009D
:2005220040EE758201227F0090E678E0FE20E604758200220FBFFF0040EE75820122AF82BD
:20054200C3E49508E433FE90E678E0FD74804DF0C007C006120510D006D00790E679EFF015
:20056200C007C0061204B6E582D006D0077014E509600C90E678E0FD74404DF012052875BE
:20058200820022EE601090000AC007C00612028ED006D00780B1E509600990E678E0FF7418
:2005A200404FF075820122AE82AF837D00E50C7003F582227508647509007582A2C007C045
:2005C20006C005120540E582D005D006D00760030206B8AC0B90E679ECF0C007C006C00517
:2005E2001204B6E582D005D006D00760030206B890E679E50AF0C007C006C0051204B6E550
:2006020082D005D006D00760030206B890E678E0FC74404CF0C007C006C00512052890E6F0
:2006220078E0FC74804CF012051090E67974A3F01204B6E582D005D006D007707990E6798A
:20064200E08E828F83F0C007C006C0051204E5E582D005D006D007705DFCC3EC950C502ADD
:2006620090E679E08E828F83F0A3AE82AF83C007C006C005C0041204E5E582D004D005D0A1
:2006820006D00770310C8C0580D090E678E0FF74204FF090E679E0C0051204E5E582D00582
:2006A200701490E678E0FF74404FF090E679E0C005120528D0058D8222AE82AF837D00E557
:2006C2000F7003F582227508647509007582A2C007C006C005120540E582D005D006D00773
:2006E200600302077DAC0E90E679ECF0C007C006C0051204B6E582D005D006D0076003021E
:20070200077D90E679E50DF0C007C006C0051204B6E582D005D006D0077060FCC3EC950F5C
:2007220050498E828F83E090E679F08E828F83E0FBA3AE82AF83903A07E02BF0903A05E0C0
:20074200FAA3E0FB903A0574012AF0E43BA3F0C007C006C005C0041204B6E582D004D0051D
:20076200D006D00770150C8C0580B190E678E0FF74404FF0C005120528D0058D8222903AE3
:200782003BE0FF903A03E0F50AA3E0F50B8F0C90E740C0071205A9AE82D0077D00903A03E4
:2007A200E0FBA3E0FC903A03EF2BF0ED3CA3F08E8222AF82903A03E0F50DA3E0F50E8F0F14
:2007C20090E740C0071206BBD0077E00903A03E0FCA3E0FD903A03EF2CF0EE3DA3F022AEE2
:2007E20082AF837D00E5117003F582227508647509007582A6C007C006C005120540E582B8
:20080200D005D006D00760030208D390E679E510F0C007C006C0051204B6E582D005D00610
:20082200D00760030208D390E678E0FC74404CF0C007C006C00512052890E678E0FC748096
:200842004CF012051090E67974A7F01204B6E582D005D006D007707990E679E08E828F83AA
:20086200F0C007C006C0051204E5E582D005D006D007705DFCC3EC9511502A90E679E08E5B
:20088200828F83F0A3AE82AF83C007C006C005C0041204E5E582D004D005D006D00770315E
:2008A2000C8C0580D090E678E0FF74204FF090E679E0C0051204E5E582D005701490E6786C
:2008C200E0FF74404FF090E679E0C005120528D0058D8222AE82AF837D00E5137003F582AA
:2008E200227508647509007582A6C007C006C005120540E582D005D006D00760030209C90F
:2009020090E679E512F0C007C006C0051204B6E582D005D006D00760030209C9AC127B0088
:20092200C3EB951340030209B98E828F83E0FAA3AE82AF8390E679EAF0C007C006C005C07C
:2009420004C0031204B6E582D003D004D005D006D00770730C8C120B8B05EC20E3C2C3EBEB
:20096200951350BC90E678E0FA74404AF0C007C006C005C004C00312052875086475090094
:200982007582A6120540E582D003D004D005D006D007703390E679ECF0C007C006C005C051
:2009A20004C0031204B6E582D003D004D005D006D007701302092290E678E0FF74404FF0A2
:2009C200C005120528D005903A08E512F08D8222903A3BE0FF903A08E0F5108F1190E74060
:2009E200C0071207E1AE82D007903A08E02FF08E8222AA82D280000000C280DAF722A2A035
:200A0200D28033C280A2A0D28033C280A2A0D28033C280A2A0D28033C280A2A0D28033C269
:200A220080A2A0D28033C280A2A0D28033C280A2A0D28033C280F5822275820022AA16A205
:200A4200A0D28033C280A2A0D28033C280A2A0D28033C280A2A0D28033C280A2A0D280334B
:200A6200C280A2A0D28033C280A2A0D28033C280A2A0D28033C280F0A3DAC422E582339298
:200A820081D28033C2809281D28033C2809281D28033C2809281D28033C2809281D28033E6
:200AA200C2809281D28033C2809281D28033C2809281D28000C28022AA16E0339281D2803D
:200AC20033C2809281D28033C2809281D28033C2809281D28033C2809281D28033C28092A5
:200AE20081D28033C2809281D28033C2809281D280A3C280DAC422D2837582081209F4C2A3
:200B02008322D2837582080209F4903A167405F0120AF9758205120A7E7E007F00C007C063
:200B220006120A00E582D006D00730E02E8E028F037C007D00C3EA94FFEB94FFEC9400EDF9
:200B4200648094805015758200C007C0061209F4D006D0070EBE00C50F80C2120A00E58291
:200B620030E0047F0280027F00903A11EFF0120B04903A11E0F58222AE82AF8320830A900F
:200B82003A117404F075820422ADB474FE5DF5B443B20BC007C006120B0CE582D006D007E0
:200BA2006007903A11E0F58222903A0BE0FCA3E07D00EC24F8FCED34FFFD8CF005F08006AF
:200BC200EE2EFEEF33FFD5F0F7903A16740BF0C007C006120AF975820B120A7ED006D007E2
:200BE2008F82C007C006120A7ED006D0078E82120A7E758200120A7E7582081209F47582CE
:200C0200002275820022020B04120B04903A1EE4F0120B0CE5826007903A11E0F5822290CE
:200C22003A167406F0120AF9758206120A7E120B04903A167402F0120AF9758202120A7E3D
:200C4200903A1BE0A3E0F582120A7E903A1BE0FEA3E08E82120A7E758200120A7E758200C1
:200C620022AF82903A1EE06012C007120C0BE582D0076007903A11E0F582228F82120A7E51
:200C8200903A1DE02401F0E07015903A1BE02401F0A3E03400F0120B04903A1E7401F075AD
:200CA200820022AE82AF83903A1EE06016C007C006120C0BE582D006D0076007903A11E002
:200CC200F58222903A1DE0FDE0700C8514168E828F83120ABA8060EDF4FD0DE5146006C3C5
:200CE200ED951450488D168E828F83C007C006C005120ABAD005D006D007E514C39DF514F3
:200D0200903A1BE02401F0A3E03400F0903A1DE4F0ED2EFEE43FFFC007C006120C0BE5823D
:200D2200D006D0076007903A11E0F582228514168E828F83120ABA903A1DE0FF2514F0E0D3
:200D42007015903A1BE02401F0A3E03400F0120B04903A1E7401F075820022AE82AF832082
:200D6200830A903A117404F075820422ADB474FE5DF5B443B20BC007C006120B0CE582D0BE
:200D820006D0076007903A11E0F58222903A1FEEF0EFA3F0903A0BE0FCA3E07D00EC24F8B7
:200DA200FCED34FFFD8CF005F08006EE2EFEEF33FFD5F0F7903A1BEEF0EFA3F0903A1DE41A
:200DC200F0903A167406F0C007C006120AF9758206120A7E120B04D006D007903A15E09081
:200DE2003A16F0C007C006120AF9D006D007903A15E0F582C007C006120A7ED006D0078FC9
:200E020082C007C006120A7ED006D0078E82120A7E758200120A7E120B04903A1E7401F0D1
:200E220075820022120B0475820022020B04120B04903A1FE0FEA3E0FF8E828F83A3020D0E
:200E42005D90E671E4F0903A0A04F0903A11E4F0903A0B7410F07480A3F0903A1574D8F016
:200E6200AFB474FE5FF5B443B20BD2837582001209F4903A167490F0120AF9758290120AAC
:200E82007E7582181209F4120A00E582903A13F0120B04903A16749FF0120AF975829F12A3
:200EA2000A7E751603903A17120A3F120B04903A19E0FFBF10004040EF24E7403B903A1756
:200EC200E0903A12F0903A18E0903A14F0903A19E024F0FF8FF005F07F017E008006EF2FE8
:200EE200FFEE33FED5F0F7903A0DEFF0EEA3F0EE3395E0A3F0A3F022903A0AE4F0903A117E
:200F02007407F0AFB274F45FF5B222903A3BE0F51690E740120A3F903A21E0FFBF020E9048
:200F22003A39E0FEA3E0FF4E7003020B0422903A3BE0F51490E740120CA5903A22E0FFBFF6
:200F4200020E903A39E0FEA3E0FF4E7003020B0422AFB674BF5F4480F5B6AFB1747F5FF51B
:200F6200B190000112026343B180903A2AE4F02243B180AFB674BF5F4480F5B6E5B120E6E2
:200F820020AFB1747F5FF5B1740455B24470F5B2740455804420F58090000112026343B1DB
:200FA20080903A2AE4F02290E6017480F00000000090E670E4F090E671F0903A2BE5B2F05D
:200FC200903A2A747BF053B204AFB674BF5F4480F5B6AFB1747F5FF5B143B27274045580C1
:200FE2004422F58090000512026343B180C2817E007F002087208E028F037C007D00C3EAC5
:2010020094FFEB94FFEC9400ED6480948050070EBE00E00F80DD43B2013087047FC880026F
:201022007F64903A28EFF0903A24E4F0A3F0A3F0A3F0903A23F0220202C83087047F1680E4
:20104200027F0B903A28E0FE2FF07F00D280C2800FBF400040F6D281D280C280D280C28041
:20106200D280C280D280C280903A2BE0F5B2E5B130E6030210392285B41575B4FF903A3B33
:20108200E0FE903A24E0FAA3E0FBA3E0FCA3E0FD8E0079007E007F00903A24E82AF0E93B13
:2010A200A3F0EE3CA3F0EF3DA3F090E68BE06022FA759B40759AE775AF07903A23E0F990FB
:2010C200E67BE0F5A0D28029F9C280DAF5903A23E9F08515B490E68BE0FFBF40005003026B
:2010E200103C22E582FF700FE5B130E60A903A297401F075820122903A29E4F090E60174C1
:2011020080F00000000090E670E4F090E671F053B204AFB474FE5FF5B4AFB674BF5F44802B
:20112200F5B6AFB1747F5FF5B143B230740455804410F58090000112026343B1809000461D
:201142001202637F007D007E00C3ED94A0EE940F502FBFFA00502AE5B120E625308305EF0D
:2011620004FC80027C008C07900001C007C006C005120263D005D006D0070DBD00CB0E80DD
:20118200C8E5B130E6051210398009120F72903A297404F0903A29E0F58222903A09E06083
:2011A2005675101A751104903A2C1207E1903A2EE0FEA3E0FF4E603F903A2CE0FCA3E0FD27
:2011C200C3EC9EED9F40048C068D071EBEFF011F903A0BE0FCA3E07D00EC24F4FCED34FFFE
:2011E200FD8CF005F08007C3EF13FFEE13FED5F0F68E828F83A322900000120B7A7F00BF2E
:2012020008005016C007120A00AE82D007EF90231293FDEEB505030F80E5BF0802801A7E30
:2012220000903A0BE0FCA3E0FDECC39FF582ED9EF583120C0890000022120A00AF82C007C7
:20124200120A00AE82903A0BE0FCA3E0FDEC24F6F582ED34FFF583C006120C08D006D00761
:201262008E05E4FEFCEF4206EC42058E828D83A322903A09E0602F75101A751104903A3047
:201282001207E1903A32E0FEA3E0FF4E6018903A30E0FEA3E0FF4E6003021335903A297474
:2012A20003F075820322900000120B7AE582600A903A297402F0758202227F00BF0800501B
:2012C20016C007120A00AE82D007EF90231293FDEEB505030F80E5BF080280207E00903AF8
:2012E2000BE0FCA3E0FDECC39FF582ED9EF583120C08903A297403F075820322120A00AF56
:2013020082C007120A00AE82D007EE4207903A0BE0FDA3E0FEED24F6F582EE34FFF583C01E
:2013220007120C08D007EF700A903A297403F0758203227582001210E5AF82903A29EFF0C7
:1E134200BF0105121039800FBF040C7582001210E5E582903A29F0903A29E0F582225B
:20006C0028015A5445580A120000000147100000000000000000000000000000000030302C
:08008C003030303030303030EC
:201360002290E683E4F07420F003F07430F07401F07421F07411F07431F07412F07432F073
:201380007406F07426F022AF82E51724E0500375171F90E6BFE0701090E6BEE0FEC39517F2
:2013A000500690E6BEE0F51775AF078F9B85169A7E407FE7EE04F59E7E407FE70EBE000193
:2013C0000F8F9D90E67C7403F090E67BE0FF7E00BF00028015C3EE9517500F90E67CEFF048
:2013E000E4F090E67BE0FF0E80E60EEE2EFE90E740F090E7417403F090E68AE4F090E68B12
:20140000EEF022903A39E0FEA3E0FFC374409EE49F50067C407D0080048E048F05903A3B93
:20142000ECF07D00903A39EEC39CF0EF9DA3F022903A3DE0FFBF31030214E2BF32030214F7
:20144000E5BF39028037BF3C028056BF4202805ABF60028008BF620280190214F1D28790F1
:20146000E6BAE060012290E6BCE0900002120263C28722903A00E4F0C2A7C2A622903A0781
:20148000E4F0903A05F0A3F090E6BBE0FE7F0090E6BAE0FD7C00903A03ED4FF0EC4EA3F049
:2014A0002290E6BAE0903A08F02290E6BDE0FF903A22F0EF704490E6BBE0FE7F0090E6BAC7
:2014C000E07C004FF582EC4EF583120D5DE582602990E6A0E0FF74014FF0903A39E4F0A3A9
:2014E000F022020F53903A2AE0FFBF7B0122020FA990E6A0E0FF74014FF022C020C0E0C081
:20150000F0C082C083C007C006C005C004C003C002C001C000C0D075D00090E6B9E0FF90C7
:201520003A3DF090E6B57401F090E6B9E0FF24F350030218CCEFF5F0240B83F582E5F02460
:201540001183F583E4736014CC94CCCC2F61637378888D1516181618181718181818181899
:2015600090E6B8E0FFBF8002800DBF8102801EBF8202802F0218CC90E740E4F090E741F0A5
:2015800090E68AF090E68B7402F00218CC90E740E4F090E741F090E68AF090E68B7402F084
:2015A0000218CC90E6BCE0FF600FBF01028019BF80028005BF812F801E90E6A0E0FF530748
:2015C0000190E740EFF0803A90E6A1E0FF53070190E740EFF0802B90E6A2E0FF5307019046
:2015E000E740EFF0801C90E6BCE0C31314540324A3F582E434E6F583E0FF53070190E74051
:20160000EFF090E741E4F090E68AF090E68B7402F00218CC90E6B8E0FFBF020280030218B5
:20162000CC90E6BAE060030218CC90E6BCE0FF600FBF01028016BF80028005BF81268018E9
:2016400090E6A0E0FF74FE5FF00218CC90E6A1E0FF74FE5FF00218CC90E6A2E0FF74FE5F89
:20166000F00218CC90E6BCE0C31314540324A3FEE434E6FF90E6BCE0C31314540324A3F570
:2016800082E434E6F583E0FD5305FE8E828F83EDF00218CC90E6B8E0FFBF020280030218CD
:2016A000CC90E6BAE060030218CC90E6BCE0FF600FBF01028015BF80028005BF812380166F
:2016C00090E6A0E0FF74014FF0804390E6A1E0FF74014FF0803890E6A2E0FF74014FF08011
:2016E0002D90E6BCE0C31314540324A3FEE434E6FF90E6BCE0C31314540324A3F582E434FF
:20170000E6F583E0FD4305FE8E828F83EDF090E6BCE05480C423541FFF90E6BCE0FE740F77
:201720005E420790E683EFF074204FF00218CC90E6BBE0FFBF01028019BF02028028BF03D9
:20174000028053BF0603021813BF07030218270218567E487F238F0690E6B3EEF090E6B417
:201760007448F00218CC90E680E0FF30E7147E647F238F0690E6B3EEF090E6B47464F002C3
:2017800018CC7E947F238F0690E6B3EEF090E6B47494F00218CC90E6BAE0FFBF0102800FAD
:2017A000BF0202801EBF0302802DBF0452803C75821A7E1A7F238F068E16751705121387C5
:2017C0000218CC75821F7E1F7F238F068E167517211213870218CC75828A7E8A7F008F06B9
:2017E0008E1675170A1213870218CC7582407E407F238F068E167517081213870218CC7EA9
:20180000C47F238F0690E6B3EEF090E6B474C4F00218CC7E5A7F238F0690E6B3EEF090E602
:20182000B4745AF00218CC90E680E0FF30E7147E947F238F0690E6B3EEF090E6B47494F0DE
:201840000218CC7E647F238F0690E6B3EEF090E6B47464F0807690E6A0E0FF74014FF08071
:201860006B806990E740E4F090E68AF090E68B04F08059121361805490E740E4F090E68AE6
:20188000F090E68B04F08044121361803F90E6B8E0FFBF823790E6BCE0C31314540375F01D
:2018A00002A4243FF582743A35F0F583E4F0A3F090E685E090E740F090E684E0FF90E741E3
:2018C000F090E68AE4F090E68B7402F090E6B8E0FFBF4003021BECBFC0028003021C1A90F9
:2018E000E6BFE0FE7F0090E6BEE0FD7C00903A39ED4FF0EC4EA3F012140390E6B9E0FFBF67
:2019000022028044BF3003021B91BF3803021A39BF3A03021A62BF3B03021AA1BF3D0302BB
:201920001ABABF4003021ADABF4103021B16BF4303021B64BF6102802CBF63030219DEBF74
:2019400064030219F3021BE190E6B5E4F090E68AF090E68B7428F090E6B3E4F090E6B474FD
:201960006CF0021C1AC2A190E6BCE0F4FF903A3CE0520790E6BAE0FE90E6BCE0FD5E903AE7
:201980003C4FF0C2A243B408903A3CE01392A3D2A1001392A3C2A1001392A3D2A1001392BD
:2019A000A3C2A1AFB474F75FF5B4D2A20000000000000000E500A2A3D2A13300A2A3C2A15F
:2019C0003300A2A3D2A13300A2A33390E740F0C2A290E68AE4F090E68B04F0021C1A903A9B
:2019E00002E4F090E6BCE0903A01F0C2A6120449021C1A90E7407401F090E7417406F09077
:201A0000E7427402F090E74323F090E744E4F090E745F090E746F090E747F090E68AF09054
:201A20003A3BE0FF24F7500990E68B7408F0021C1A90E68BEFF0021C1A90E6BBE0FE7F0093
:201A400090E6BAE0FD7C00903A03ED4FF0EC4EA3F090E68AE4F0120780E58290E68BF00270
:201A60001C1A903A05E0FEA3E090E740EEF0903A05E0A3E090E741F0903A07E090E742F037
:201A80007508007509017582A2120540AF8290E743EFF090E68AE4F090E68B7404F0021C35
:201AA0001A90E6BAE0903A08F090E68AE4F01209D2E58290E68BF0021C1A750800750901ED
:201AC0007582A6120540AF8290E740EFF090E68AE4F090E68B04F0021C1A903A11E0700916
:201AE000208306903A117404F0759B0A7E0A7F3A8F068E9A759E407E407FE78F068E9DC0EB
:201B0000027A081202B9D00290E68AE4F090E68B7408F0021C1A90E6BDE0FF903A21F0EF4D
:201B2000702E90E6BBE0FE7F0090E6BAE07C004FF582EC4EF583120B7AE582601390E6A0EE
:201B4000E0FF74014FF0903A39E4F0A3F0021C1A120F0D90E68AE4F0903A3BE0FF90E68B69
:201B6000F0021C1A759B117E117F3A8F068E9A759E407E407FE78F068E9DC0027A0A120286
:201B8000B9D00290E68AE4F090E68B740AF0021C1A759B237E237F3A8F068E9A759E417E23
:201BA000417FE78F068E9DC0027A071202B9D002AFB674BF5F4480F5B6E5B130E60790E74C
:201BC00040E4F0800990E7407401F0120F5390E7487401F090E68AE4F090E68B7409F080F2
:201BE0003990E6A0E0FF74014FF0802E90E6BFE0700690E6BEE0601A903A3E7401F090E659
:201C00008BE4F0AF9174EF5FF59190E65D7401F0801E12143090E68BE4F0AF9174EF5FF5E5
:201C20009190E65D7401F090E6A0E0FF74804FF0D0D0D000D001D002D003D004D005D0064E
:201C4000D007D083D082D0F0D0E0D02032C0E0C082C083C007C0D075D000AF9174EF5FF5BE
:201C60009190E65D7402F0D0D0D007D083D082D0E032C0E0C082C083C007C0D075D000AF2C
:201C80009174EF5FF59190E65D7404F0D0D0D007D083D082D0E032C0E0C082C083C007C086
:201CA000D075D000AF9174EF5FF59190E65D7408F0D0D0D007D083D082D0E032C0E0C08268
:201CC000C083C007C0D075D000AF9174EF5FF59190E65D7410F0D0D0D007D083D082D0E08A
:201CE00032C0E0C082C083C007C0D075D000AF9174EF5FF59190E65D7420F0D0D0D007D0CB
:201D000083D082D0E032C0E0C082C083C007C0D075D000AF9174EF5FF59190E65D7440F04C
:201D2000D0D0D007D083D082D0E032C020C0E0C0F0C082C083C007C006C005C004C003C057
:201D400002C001C000C0D075D000C2E8121403903A3DE0FFBF3003021DD9BF38028033BF1D
:201D60003A03021DD9BF3B028038BF3D02806ABF40028065BF41028039BF4302805BBF61F2
:201D8000028056BF63028005BF6445804C120449804790E68AE4F0120780E58290E68BF0A3
:201DA000803790E68AE4F01209D2E58290E68BF08027903A3BE06008903A11E4F0120F0D82
:201DC00090E68AE4F0903A3BE0FF90E68BF0800990E68AE4F090E68BF0AF9174EF5FF59184
:201DE00090E65F7401F0D2E8D0D0D000D001D002D003D004D005D006D007D083D082D0F04E
:201E0000D0E0D02032C020C0E0C0F0C082C083C007C006C005C004C003C002C001C000C05F
:201E2000D075D000C2E8903A3EE06020903A3EE4F090E6BFE0FE7F0090E6BEE0FD7C0090F0
:201E40003A39ED4FF0EC4EA3F0121430121403903A3DE0FFBF3103021EC6BF32028064BF42
:201E600039028017BF3C02801DBF4202802CBF60028053BF62501203CF804B90E68BE0F55D
:201E8000821207B48040903A08E0F51290E68BE0F51390E7401208D6802C903A3BE06026D3
:201EA000903A11E4F0120F30903A11E06018120B0490E6A0E0FF74014FF0903A39E4F0A3AB
:201EC000F0800312107990E68BE4F0AF9174EF5FF59190E65F7402F0903A39E0F5F0A3E011
:201EE00045F0700990E6A0E0FF74804FF0D2E8D0D0D000D001D002D003D004D005D006D01D
:201F000007D083D082D0F0D0E0D02032C0E0C082C083C007C0D075D000AF9174EF5FF5913A
:201F200090E65F7404F0D0D0D007D083D082D0E032C0E0C082C083C007C0D075D000AF9165
:201F400074EF5FF59190E65F7408F0D0D0D007D083D082D0E032C0E0C082C083C007C0D07E
:201F600075D000AF9174EF5FF59190E65F7410F0D0D0D007D083D082D0E032C0E0C082C0AB
:201F800083C007C0D075D000AF9174EF5FF59190E65F7420F0D0D0D007D083D082D0E03243
:201FA000C0E0C082C083C007C0D075D000AF9174EF5FF59190E65F7440F0D0D0D007D08395
:201FC000D082D0E032C0E0C082C083C007C0D075D000AF9174EF5FF59190E65F7480F0D0FB
:201FE000D0D007D083D082D0E032751000751103903A341207E1903A34E0FFBF4302800349
:20200000022081903A35E0FFBF4476903A36E0FFBF306E903A097401F075101075110A909D
:20202000008A1207E1751020751105903A341207E1903A34E0FF6030BFFF02802B903A351D
:20204000E0FF6024BFFF02801F759B347E347F3A8F068E9A759E507E507F238F068E9DC0FF
:20206000027A041202B9D002903A38E0601875102475112090231F1207E190233FE4F08086
:2020800005903A09E4F07F00EF248AF582E43400F583E0FEBE30550FBF0A0040EB7510FBCD
:2020A000751105903A341207E17F007E00EE2434F582E4343AF583E0FDEF248AFBE434008C
:2020C000FCEDC4540F9023C893FA8B828C83F00FEF248AFBE43400FC740F5D9023C893FD36
:2020E0008B828C83F00F0EBE050040C12290E680E0FF74084FF090E6007412F090000212B1
:202100000263AF8E74F85FF58E120F72903A2974FFF0C2AFC2E89000437402F090004414AA
:20212000F090004574B8F090E668E0FF74084FF09001007402F07EFB7F148F05900101ED30
:20214000F0900102EEF09001047402F07E4D7F1C8F05900105EDF0900106EEF09001087434
:2021600002F07E727F1C8F05900109EDF090010AEEF090010C7402F07E977F1C8F05900186
:202180000DEDF090010EEEF09001107402F07EBC7F1C8F05900111EDF0900112EEF09001D7
:2021A000147402F07EE17F1C8F05900115EDF0900116EEF09001187402F07E067F1D8F054C
:2021C000900119EDF090011AEEF09001207402F07E2B7F1D8F05900121EDF0900122EEF0DF
:2021E0009001247402F07E057F1E8F05900125EDF0900126EEF09001287402F07E0C7F1FA1
:202200008F05900129EDF090012AEEF090012C7402F07E317F1F8F0590012DEDF090012E9C
:20222000EEF09001307402F07E567F1F8F05900131EDF0900132EEF09001347402F07E7B2F
:202240007F1F8F05900135EDF0900136EEF09001387402F07EA07F1F8F05900139EDF0904E
:20226000013AEEF090013C7402F07EC57F1F8F0590013DEDF090013EEEF0AF9174EF5FF54E
:202280009190E65D747FF090E65CE0FF747F4FF090E65F74FFF090E65EF0D2E8D2AF90E667
:2022A0001174A0F00000000090E61074A0F00000000090E61274E0F00000000090E613E446
:2022C000F00000000090E61474A0F00000000090E615E4F000000000120E43903A0AE0709A
:2022E000099000FA120263120E43121FEA12127390E680E0FF74824FF090000A1202639014
:0E230000E680E0FF74F75FF0221220ED80FE11
:202312005A544558425301015A544558005553422D46504741204D6F64756C6520322E3013
:20233200312064656661756C74204657000064656661756C740012010002FFFFFF401A2225
:2023520000010000010203010A060002FFFFFF40010009022E00010104C0320904000004D1
:20237200FFFFFF000705810200020007050102000200070582020002000705060200020004
:20239200000009022E00010104C0320904000004FFFFFF00070581024000000705010240CE
:2023B2000000070582024000000705060240000000000403040930313233343536373839C6
:1523D2004142434445460000000000FF00000000000000000062
:06023500E478FFF6D8FD9D
:20021300790EE94400601B7A019023D9783975923AE493F2A308B800020592D9F4DAF27530
:0202330092FF38
:20023B007800E84400600A790075923AE4F309D8FC7839E84400600C7901903A00E4F0A323
:04025B00D8FCD9FAF8
:0D02060075812012230EE5826003020203C1
:04230E0075820022B2
:00000001FF
