:03020000020206F1
:03025F0002020395
:03020300021829B5
:0400000002020032C6
:01000B0032C2
:0100130032BA
:01001B0032B2
:0100230032AA
:01002B0032A2
:01003300329A
:01003B003292
:01004300328A
:01004B003282
:01005300327A
:01005B003272
:01006300326A
:0101000032CC
:0101040032C8
:0101080032C4
:01010C0032C0
:0101100032BC
:0101140032B8
:0101180032B4
:0101200032AC
:0101240032A8
:0101280032A4
:01012C0032A0
:01013000329C
:010134003298
:010138003294
:01013C003290
:01014000328C
:010148003284
:01014C003280
:01015000327C
:010154003278
:010158003274
:01015C003270
:01016000326C
:01017000325C
:010174003258
:010178003254
:01017C003250
:01018000324C
:010184003248
:010188003244
:01018C003240
:01019000323C
:010194003238
:010198003234
:01019C003230
:0101A000322C
:0101A8003224
:0101AC003220
:0101B000321C
:0101B4003218
:0101B8003214
:2002620022AE82AF837C007D00C3EC9EED9F501B7AB07B04EA24FFF8EB34FFF988028903E0
:20028200E84970F00CBC00E10D80DE22AE82AF837C007D00C3EC9EED9F501B7A0A7B00EA0D
:2002A20024FFF8EB34FFF988028903E84970F00CBC00E10D80DE2275AF0790E67BE090E6BB
:2002C2007CF0DAF322227F00BFFF00500B90E678E0FE20E0030F80F090E678E0FF20E204E6
:2002E200EF20E10D90E678E0FF74404FF075820122758200227F00BFFF00500B90E678E0A6
:20030200FE20E0030F80F090E678E0FF30E20D90E678E0FF74404FF075820122758200227C
:200322007F0090E678E0FE20E204758200220FBFFF0040EE758201227F0090E678E0FE20D1
:20034200E604758200220FBFFF0040EE75820122AF82C3E49508E433FE90E678E0FD74803A
:200362004DF0C007C006120322D006D00790E679EFF0C007C0061202C8E582D006D0077012
:2003820014E509600C90E678E0FD74404DF012033A75820022EE601090000AC007C0061232
:2003A200028ED006D00780B1E509600990E678E0FF74404FF075820122AE82AF837D00E5D8
:2003C2000C7003F582227508647509007582A2C007C006C005120352E582D005D006D00769
:2003E20060030204CAAC0B90E679ECF0C007C006C0051202C8E582D005D006D007600302CA
:2004020004CA90E679E50AF0C007C006C0051202C8E582D005D006D00760030204CA90E67E
:2004220078E0FC74404CF0C007C006C00512033A90E678E0FC74804CF012032290E6797441
:20044200A3F01202C8E582D005D006D007707990E679E08E828F83F0C007C006C005120212
:20046200F7E582D005D006D007705DFCC3EC950C502A90E679E08E828F83F0A3AE82AF8321
:20048200C007C006C005C0041202F7E582D004D005D006D00770310C8C0580D090E678E020
:2004A200FF74204FF090E679E0C0051202F7E582D005701490E678E0FF74404FF090E6795A
:2004C200E0C00512033AD0058D8222AE82AF837D00E50F7003F582227508647509007582EB
:2004E200A2C007C006C005120352E582D005D006D007600302058FAC0E90E679ECF0C00771
:20050200C006C0051202C8E582D005D006D007600302058F90E679E50DF0C007C006C0056D
:200522001202C8E582D005D006D0077060FCC3EC950F50498E828F83E090E679F08E828FBC
:2005420083E0FBA3AE82AF83903A05E02BF0903A03E0FAA3E0FB903A0374012AF0E43BA329
:20056200F0C007C006C005C0041202C8E582D004D005D006D00770150C8C0580B190E67899
:20058200E0FF74404FF0C00512033AD0058D8222903A18E0FF903A01E0F50AA3E0F50B8FF0
:2005A2000C90E740C0071203BBAE82D0077D00903A01E0FBA3E0FC903A01EF2BF0ED3CA395
:2005C200F08E8222AF82903A01E0F50DA3E0F50E8F0F90E740C0071204CDD0077E00903A75
:2005E20001E0FCA3E0FD903A01EF2CF0EE3DA3F022AE82AF837D00E5117003F58222750888
:20060200647509007582A6C007C006C005120352E582D005D006D00760030206E590E67978
:20062200E510F0C007C006C0051202C8E582D005D006D00760030206E590E678E0FC7440EE
:200642004CF0C007C006C00512033A90E678E0FC74804CF012032290E67974A7F01202C8B4
:20066200E582D005D006D007707990E679E08E828F83F0C007C006C0051202F7E582D0052C
:20068200D006D007705DFCC3EC9511502A90E679E08E828F83F0A3AE82AF83C007C006C0E0
:2006A20005C0041202F7E582D004D005D006D00770310C8C0580D090E678E0FF74204FF079
:2006C20090E679E0C0051202F7E582D005701490E678E0FF74404FF090E679E0C005120350
:2006E2003AD0058D8222AE82AF837D00E5137003F582227508647509007582A6C007C0064C
:20070200C005120352E582D005D006D00760030207DB90E679E512F0C007C006C00512023F
:20072200C8E582D005D006D00760030207DBAC127B00C3EB951340030207CB8E828F83E017
:20074200FAA3AE82AF8390E679EAF0C007C006C005C004C0031202C8E582D003D004D00537
:20076200D006D00770730C8C120B8B05EC20E3C2C3EB951350BC90E678E0FA74404AF0C019
:2007820007C006C005C004C00312033A7508647509007582A6120352E582D003D004D005A9
:2007A200D006D007703390E679ECF0C007C006C005C004C0031202C8E582D003D004D00584
:2007C200D006D007701302073490E678E0FF74404FF0C00512033AD005903A06E512F08DBD
:2007E2008222903A18E0FF903A06E0F5108F1190E740C0071205F3AE82D007903A06E02FCF
:20080200F08E822275B68075B10090000112026375B600903A0FE4F022E5B120E00C75B614
:200822008075B10090000112026375B600903A0FE4F022903A00E4F090E6017480F0000015
:20084200000090E671E4F090E672F0903A10E5B4F0903A0F747BF0AFB4746F5FF5B443B4A3
:2008620040D2A675B6BC75B10890000212026375B188C2A67E007F00E5B120E1208E028FB7
:20088200037C007D00C3EA94FFEB94FFEC9400ED6480948050070EBE00DE0F80DBE5B13006
:2008A200E1047FC880027F64903A0DEFF0903A09E4F0A3F0A3F0A3F0903A08F02290E60B2A
:2008C200E4F00000000090E6017480F00000000090E6A3E0FF74FE5FF00000000090E6A414
:2008E200E0FF74FE5FF00000000090E618E4F00000000090E619E4F00000000090E60474A3
:2009020080F00000000090E6047484F00000000090E6047402F00000000090E604E4F000D5
:2009220000000090E6957480F00000000090E6957480F0903A0023F022E5B130E1047F1698
:2009420080027F0B903A0DE0FE2FF07F00D2A6C2A60FBF400040F643B104D2A6C2A6D2A6C2
:20096200C2A6D2A6C2A6D2A6C2A675B600903A10E0F5B4E5B130E0030208BF2285B314756A
:20098200B3FF903A18E0FE903A09E0FAA3E0FBA3E0FCA3E0FD8E0079007E007F00903A09E2
:2009A200E82AF0E93BA3F0EE3CA3F0EF3DA3F090E68BE06022FA759B40759AE775AF0790A2
:2009C2003A08E0F990E67BE0F590D2A629F9C2A6DAF5903A08E9F08514B390E68BE0FFBF3D
:2009E2004000500302093B2290E60174C2F090E6F3E4F090E6C3F090E6C1F090E6C2740420
:200A0200F090E6C0744EF090E6F4E4F0759B197E197F3A8F068E9A759E607E607FE48F063F
:200A22008E9DC0027A201202B9D00290E6C6E4F090E6C77410F090E6C8E4F090E6C9F090FC
:200A4200E6CAF090E6CBF090E6CCF090E6CDF090E60B04F00000000090E6047480F000008B
:200A6200000090E6047404F00000000090E619E4F00000000090E6197410F000000000909C
:200A8200E604E4F00000000090E6DA7401F00000000090E6CE7401F00000000090E6CFE40F
:200AA200F00000000090E6D0E4F00000000090E6D1E4F00000000090E6DC74FFF00000005A
:0C0AC20000AFB474BF5FF5B475B19022B2
:20006C0028015A5445580A1000000001630000000000000000000000000000000000303022
:08008C003030303030303030EC
:200ACE002290E683E4F07420F003F07430F07401F07421F07411F07431F07412F07432F00E
:200AEE007404F07424F022AF82E51624E0500375161F90E6BFE0701090E6BEE0FEC3951694
:200B0E00500690E6BEE0F51675AF078F9B85159A7E407FE7EE04F59E7E407FE70EBE00012F
:200B2E000F8F9D90E67C7403F090E67BE0FF7E00BF00028015C3EE9516500F90E67CEFF0E3
:200B4E00E4F090E67BE0FF0E80E60EEE2EFE90E740F090E7417403F090E68AE4F090E68BAC
:200B6E00EEF022903A16E0FEA3E0FFC374409EE49F50067C407D0080048E048F05903A1874
:200B8E00ECF07D00903A16EEC39CF0EF9DA3F022903A59E0FFBF31028049BF32028047BF5A
:200BAE003402804EBF3502805EBF39028008BF3C028027020C35903A05E4F0903A03F0A3E3
:200BCE00F090E6BBE0FE7F0090E6BAE0FD7C00903A01ED4FF0EC4EA3F02290E6BAE0903A40
:200BEE0006F022020806903A0FE0FFBF7B012202083512083590E6A4E0FF74FE5FF090E6EC
:200C0E00F574FFF00209EA75B18843B44090E6F574FFF00000000090E601E0FF74F05FF0BD
:200C2E000000000002093B90E6A0E0FF74014FF022C020C0E0C0F0C082C083C007C006C093
:200C4E0005C004C003C002C001C000C0D075D00090E6B9E0FF903A59F090E6B57401F090A1
:200C6E00E6B9E0FF24F35003021010EFF5F0240B83F582E5F0241183F583E473A45810D81F
:200C8E00101073A5A7B7BCCCD10C0D100D10100E0F0F0F0F0F0F90E6B8E0FFBF8002800DBE
:200CAE00BF8102801EBF8202802F02101090E740E4F090E741F090E68AF090E68B7402F0A8
:200CCE0002101090E740E4F090E741F090E68AF090E68B7402F002101090E6BCE0FF600FB8
:200CEE00BF01028019BF80028005BF812F801E90E6A0E0FF53070190E740EFF0803A90E6A2
:200D0E00A1E0FF53070190E740EFF0802B90E6A2E0FF53070190E740EFF0801C90E6BCE013
:200D2E00C31314540324A3F582E434E6F583E0FF53070190E740EFF090E741E4F090E68A54
:200D4E00F090E68B7402F002101090E6B8E0FFBF0202800302101090E6BAE0600302101002
:200D6E0090E6BCE0FF600FBF01028016BF80028005BF8126801890E6A0E0FF74FE5FF00211
:200D8E00101090E6A1E0FF74FE5FF002101090E6A2E0FF74FE5FF002101090E6BCE0C3138A
:200DAE0014540324A3FEE434E6FF90E6BCE0C31314540324A3F582E434E6F583E0FD5305BC
:200DCE00FE8E828F83EDF002101090E6B8E0FFBF0202800302101090E6BAE06003021010DC
:200DEE0090E6BCE0FF600FBF01028015BF80028005BF8123801690E6A0E0FF74014FF08026
:200E0E004390E6A1E0FF74014FF0803890E6A2E0FF74014FF0802D90E6BCE0C31314540374
:200E2E0024A3FEE434E6FF90E6BCE0C31314540324A3F582E434E6F583E0FD4305FE8E82A8
:200E4E008F83EDF090E6BCE05480C423541FFF90E6BCE0FE740F5E420790E683EFF07420B0
:200E6E004FF002101090E6BBE0FFBF01028019BF02028028BF03028053BF0603020F57BFA7
:200E8E000703020F6B020F9A7EF07F188F0690E6B3EEF090E6B474F0F002101090E680E0FC
:200EAE00FF30E7147E0C7F198F0690E6B3EEF090E6B4740CF00210107E3C7F198F0690E623
:200ECE00B3EEF090E6B4743CF002101090E6BAE0FFBF0102800FBF0202801EBF0302802D55
:200EEE00BF0452803C7582C27EC27F188F068E15751605120AF50210107582C77EC77F18EE
:200F0E008F068E15751621120AF502101075828A7E8A7F008F068E1575160A120AF50210B4
:200F2E00107582E87EE87F188F068E15751608120AF50210107E6C7F198F0690E6B3EEF09B
:200F4E0090E6B4746CF00210107E027F198F0690E6B3EEF090E6B47402F002101090E6800B
:200F6E00E0FF30E7147E3C7F198F0690E6B3EEF090E6B4743CF00210107E0C7F198F069038
:200F8E00E6B3EEF090E6B4740CF0807690E6A0E0FF74014FF0806B806990E740E4F090E6BE
:200FAE008AF090E68B04F08059120ACF805490E740E4F090E68AF090E68B04F08044120ACC
:200FCE00CF803F90E6B8E0FFBF823790E6BCE0C31314540375F002A4245BF582743A35F0C9
:200FEE00F583E4F0A3F090E685E090E740F090E684E0FF90E741F090E68AE4F090E68B74B8
:20100E0002F090E6B8E0FFBF4003021197BFC00280030211C590E6BFE0FE7F0090E6BEE095
:20102E00FD7C00903A16ED4FF0EC4EA3F0120B7190E6B9E0FFBF22028025BF300302112BFC
:20104E00BF3303021175BF38028031BF3A028055BF3B030210F2BF3D0302110B02118C903E
:20106E00E6B5E4F090E68AF090E68B7428F090E6B3E4F090E6B4746CF00211C590E6BBE096
:20108E00FE7F0090E6BAE0FD7C00903A01ED4FF0EC4EA3F090E68AE4F0120592E58290E61E
:2010AE008BF00211C5903A03E0FEA3E090E740EEF0903A03E0A3E090E741F0903A05E090F5
:2010CE00E742F07508007509017582A2120352AF8290E743EFF090E68AE4F090E68B7404D6
:2010EE00F00211C590E6BAE0903A06F090E68AE4F01207E4E58290E68BF00211C5750800CC
:20110E007509017582A6120352AF8290E740EFF090E68AE4F090E68B04F00211C5759B08BE
:20112E007E087F3A8F068E9A759E417E417FE78F068E9DC0027A071202B9D002E5B130E0E4
:20114E000790E740E4F0800C90E7407401F075B60012080690E7487401F090E68AE4F09074
:20116E00E68B7409F0805090E7407404F090E741E4F090E68AF090E68B7402F0803990E682
:20118E00A0E0FF74014FF0802E90E6BFE0700690E6BEE0601A903A5A7401F090E68BE4F0E9
:2011AE00AF9174EF5FF59190E65D7401F0801E120B9E90E68BE4F0AF9174EF5FF59190E635
:2011CE005D7401F090E6A0E0FF74804FF0D0D0D000D001D002D003D004D005D006D007D00B
:2011EE0083D082D0F0D0E0D02032C0E0C082C083C007C0D075D000AF9174EF5FF59190E6BB
:20120E005D7402F0D0D0D007D083D082D0E032C0E0C082C083C007C0D075D000AF9174EF9B
:20122E005FF59190E65D7404F0D0D0D007D083D082D0E032C0E0C082C083C007C0D075D0C1
:20124E0000AF9174EF5FF59190E65D7408F0D0D0D007D083D082D0E032C0E0C082C083C0D6
:20126E0007C0D075D000AF9174EF5FF59190E65D7410F0D0D0D007D083D082D0E032C0E017
:20128E00C082C083C007C0D075D000AF9174EF5FF59190E65D7420F0D0D0D007D083D08224
:2012AE00D0E032C0E0C082C083C007C0D075D000AF9174EF5FF59190E65D7440F0D0D0D00E
:2012CE0007D083D082D0E032C020C0E0C0F0C082C083C007C006C005C004C003C002C00161
:2012EE00C000C0D075D000C2E8120B71903A59E0FFBF30028042BF3302803DBF3802800F25
:20130E00BF3A028033BF3B028015BF3D22802990E68AE4F0120592E58290E68BF0801990BB
:20132E00E68AE4F01207E4E58290E68BF0800990E68AE4F090E68BF0AF9174EF5FF59190A0
:20134E00E65F7401F0D2E8D0D0D000D001D002D003D004D005D006D007D083D082D0F0D0AA
:20136E00E0D02032C020C0E0C0F0C082C083C007C006C005C004C003C002C001C000C0D0FC
:20138E0075D000C2E8903A5AE06020903A5AE4F090E6BFE0FE7F0090E6BEE0FD7C00903AEB
:2013AE0016ED4FF0EC4EA3F0120B9E120B71903A59E0FFBF3102803BBF32028033BF34027D
:2013CE008031BF3502802CBF39028005BF3C24800B90E68BE0F5821205C68017903A06E007
:2013EE00F51290E68BE0F51390E7401206E8800312097E90E68BE4F0AF9174EF5FF591902F
:20140E00E65F7402F0903A16E0F5F0A3E045F0700990E6A0E0FF74804FF0D2E8D0D0D000EB
:20142E00D001D002D003D004D005D006D007D083D082D0F0D0E0D02032C0E0C082C083C0B6
:20144E0007C0D075D000AF9174EF5FF59190E65F7404F0D0D0D007D083D082D0E032C0E03F
:20146E00C082C083C007C0D075D000AF9174EF5FF59190E65F7408F0D0D0D007D083D08258
:20148E00D0E032C0E0C082C083C007C0D075D000AF9174EF5FF59190E65F7410F0D0D0D05A
:2014AE0007D083D082D0E032C0E0C082C083C007C0D075D000AF9174EF5FF59190E65F74FE
:2014CE0020F0D0D0D007D083D082D0E032C0E0C082C083C007C0D075D000AF9174EF5FF538
:2014EE009190E65F7440F0D0D0D007D083D082D0E032C0E0C082C083C007C0D075D000AF66
:20150E009174EF5FF59190E65F7480F0D0D0D007D083D082D0E032751000751103903A1144
:20152E001205F3903A11E0FFBF430280030215BC903A12E0FFBF4476903A13E0FFBF306E32
:20154E00903A077401F075101075110A90008A1205F3751020751105903A111205F3903A1F
:20156E0011E0FF6030BFFF02802B903A12E0FF6024BFFF02801F759B117E117F3A8F068E48
:20158E009A759EF87EF87F188F068E9DC0027A041202B9D002903A15E06018751024751186
:2015AE00209018C71205F39018E7E4F08005903A07E4F07F00EF248AF582E43400F583E0F4
:2015CE00FEBE30550FBF0A0040EB7510FB751105903A111205F37F007E00EE2411F582E44E
:2015EE00343AF583E0FDEF248AFBE43400FCEDC4540F90197093FA8B828C83F00FEF248AFC
:20160E00FBE43400FC740F5D90197093FD8B828C83F00F0EBE050040C12290E680E0FF74CC
:20162E00084FF090E6007412F0900002120263AF8E74F85FF58E12081BC2AFC2E8900043B2
:20164E007402F090004414F090004574B8F090E668E0FF74084FF09001007402F07E3F7FA2
:20166E000C8F05900101EDF0900102EEF09001047402F07EF87F118F05900105EDF0900143
:20168E0006EEF09001087402F07E1D7F128F05900109EDF090010AEEF090010C7402F07E28
:2016AE00427F128F0590010DEDF090010EEEF09001107402F07E677F128F05900111EDF02D
:2016CE00900112EEF09001147402F07E8C7F128F05900115EDF0900116EEF090011874021A
:2016EE00F07EB17F128F05900119EDF090011AEEF09001207402F07ED67F128F0590012146
:20170E00EDF0900122EEF09001247402F07E727F138F05900125EDF0900126EEF09001283B
:20172E007402F07E477F148F05900129EDF090012AEEF090012C7402F07E6C7F148F059055
:20174E00012DEDF090012EEEF09001307402F07E917F148F05900131EDF0900132EEF090A6
:20176E0001347402F07EB67F148F05900135EDF0900136EEF09001387402F07EDB7F148F73
:20178E0005900139EDF090013AEEF090013C7402F07E007F158F0590013DEDF090013EEEA5
:2017AE00F0AF9174EF5FF59190E65D747FF090E65CE0FF747F4FF090E65F74FFF090E65EFE
:2017CE00F0D2E8D2AF90E61174A0F00000000090E61074A0F00000000090E61274E2F000ED
:2017EE0000000090E61374A2F00000000090E614E4F00000000090E615E4F000000000127D
:20180E00152590E680E0FF74824FF090000A12026390E680E0FF74F75FF02212162890E6EE
:20182E00A4E05404FFB40100E433FF903A00E0FEEF5E60EA90E694E0FE7F0090E695E0FD66
:20184E007C004207EC4206EF4E6058C3E49F74029E405090E6A3E0FD20E3487C007D00C3A5
:20186E00EC9FED9E50238C8274F42DF583E0905001F08C0274F02DFB905002E0F98A828B99
:20188E0083F00CBC00D90D80D690E690EEF0000000007E0090E691EFF00000000090E648BD
:1018AE007402F00000000090E6957480F002182C8F
:2018C2005A544558006D6D696F206578616D706C6520666F722055464D20322E31360000A7
:2018E20000000000000064656661756C740012010002FFFFFF401A2200010000010203016B
:201902000A060002FFFFFF40010009022E00010104C0320904000004FFFFFF0007058102A7
:20192200000200070501020002000705820200020007050402000200000009022E000101B1
:2019420004C0320904000004FFFFFF00070581024000000705010240000007058202400093
:2019620000070504024000000000040304093031323334353637383941424344454600005D
:20198200000001880101010101070207020202020200200000000000002000360000000027
:2019A200003F020190010101010702020702020202002000000000000020000036000000BF
:0C19C200003FFF000000000000000000DB
:06023500E478FFF6D8FD9D
:20021300794DE94400601B7A01901981781675923AE493F2A308B800020592D9F4DAF27576
:0202330092FF38
:20023B007800E84400600A790075923AE4F309D8FC7816E84400600C7901903A00E4F0A346
:04025B00D8FCD9FAF8
:0D0206007581201218BEE58260030202031C
:0418BE00758200220D
:00000001FF
