:03020000020206F1
:03025F0002020395
:030203000211AB3A
:0400000002020032C6
:01000B0032C2
:0100130032BA
:01001B0032B2
:0100230032AA
:01002B0032A2
:01003300329A
:01003B003292
:01004300328A
:01004B003282
:01005300327A
:01005B003272
:01006300326A
:0101000032CC
:0101040032C8
:0101080032C4
:01010C0032C0
:0101100032BC
:0101140032B8
:0101180032B4
:0101200032AC
:0101240032A8
:0101280032A4
:01012C0032A0
:01013000329C
:010134003298
:010138003294
:01013C003290
:01014000328C
:010148003284
:01014C003280
:01015000327C
:010154003278
:010158003274
:01015C003270
:01016000326C
:01017000325C
:010174003258
:010178003254
:01017C003250
:01018000324C
:010184003248
:010188003244
:01018C003240
:01019000323C
:010194003238
:010198003234
:01019C003230
:0101A000322C
:0101A8003224
:0101AC003220
:0101B000321C
:0101B4003218
:0101B8003214
:2002620022AE82AF837C007D00C3EC9EED9F501B7AB07B04EA24FFF8EB34FFF988028903E0
:20028200E84970F00CBC00E10D80DE22AE82AF837C007D00C3EC9EED9F501B7A0A7B00EA0D
:2002A20024FFF8EB34FFF988028903E84970F00CBC00E10D80DE2275AF0790E67BE090E6BB
:2002C2007CF0DAF322227F00BFFF00500B90E678E0FE20E0030F80F090E678E0FF20E204E6
:2002E200EF20E10D90E678E0FF74404FF075820122758200227F00BFFF00500B90E678E0A6
:20030200FE20E0030F80F090E678E0FF30E20D90E678E0FF74404FF075820122758200227C
:200322007F0090E678E0FE20E204758200220FBFFF0040EE758201227F0090E678E0FE20D1
:20034200E604758200220FBFFF0040EE75820122AF82C3E49508E433FE90E678E0FD74803A
:200362004DF0C007C006120322D006D00790E679EFF0C007C0061202C8E582D006D0077012
:2003820014E509600C90E678E0FD74404DF012033A75820022EE601090000AC007C0061232
:2003A200028ED006D00780B1E509600990E678E0FF74404FF075820122AE82AF837D00E5D8
:2003C2000C7003F582227508647509007582A2C007C006C005120352E582D005D006D00769
:2003E20060030204CAAC0B90E679ECF0C007C006C0051202C8E582D005D006D007600302CA
:2004020004CA90E679E50AF0C007C006C0051202C8E582D005D006D00760030204CA90E67E
:2004220078E0FC74404CF0C007C006C00512033A90E678E0FC74804CF012032290E6797441
:20044200A3F01202C8E582D005D006D007707990E679E08E828F83F0C007C006C005120212
:20046200F7E582D005D006D007705DFCC3EC950C502A90E679E08E828F83F0A3AE82AF8321
:20048200C007C006C005C0041202F7E582D004D005D006D00770310C8C0580D090E678E020
:2004A200FF74204FF090E679E0C0051202F7E582D005701490E678E0FF74404FF090E6795A
:2004C200E0C00512033AD0058D8222AE82AF837D00E50F7003F582227508647509007582EB
:2004E200A2C007C006C005120352E582D005D006D007600302058FAC0E90E679ECF0C00771
:20050200C006C0051202C8E582D005D006D007600302058F90E679E50DF0C007C006C0056D
:200522001202C8E582D005D006D0077060FCC3EC950F50498E828F83E090E679F08E828FBC
:2005420083E0FBA3AE82AF83903A04E02BF0903A02E0FAA3E0FB903A0274012AF0E43BA32C
:20056200F0C007C006C005C0041202C8E582D004D005D006D00770150C8C0580B190E67899
:20058200E0FF74404FF0C00512033AD0058D8222903A93E0FF903A00E0F50AA3E0F50B8F76
:2005A2000C90E740C0071203BBAE82D0077D00903A00E0FBA3E0FC903A00EF2BF0ED3CA397
:2005C200F08E8222AF82903A00E0F50DA3E0F50E8F0F90E740C0071204CDD0077E00903A76
:2005E20000E0FCA3E0FD903A00EF2CF0EE3DA3F022903A05E0FEA3E0FF741F5E25E025E0BE
:200602002409FCE4343AFD903A89ECF0EDA3F0759B8B7A8B7B3A8B028A9A8C028D038A9E65
:200622008D048C9DC0027A041202B9D002903A0574012EF0E43FA3F022903A05E4F0A3F0AF
:20064200903A077420F0903A087404F0903A897409F0743AA3F022903A93E0FF6022903A5E
:200662008FE0FDA3E0FE8D9B8E058D9A759E407D407EE78E058D9DC0027AF01202B9D002AC
:15068200903A8FE0FDA3E0FE903A8FEF2DF0E43EA3F08F82225F
:20006C0028015A544558000000000001090000000000000000000000000000000000303096
:08008C003030303030303030EC
:200697002290E683E4F07420F003F07430F07401F07421F07411F07431F07412F07432F049
:2006B7007404F07424F022AF82E51124E0500375111F90E6BFE0701090E6BEE0FEC39511DE
:2006D700500690E6BEE0F51175AF078F9B85109A7E407FE7EE04F59E7E407FE70EBE000175
:2006F7000F8F9D90E67C7403F090E67BE0FF7E00BF00028015C3EE9511500F90E67CEFF024
:20071700E4F090E67BE0FF0E80E60EEE2EFE90E740F090E7417403F090E68AE4F090E68BE7
:20073700EEF022903A91E0FEA3E0FFC374409EE49F50067C407D0080048E048F05903A93B9
:20075700ECF07D00903A91EEC39CF0EF9DA3F022903A94E0FFBF3924903A04E4F0903A0289
:20077700F0A3F090E6BBE0FE7F0090E6BAE0FD7C00903A00ED4FF0EC4EA3F02290E6A0E0ED
:20079700FF74014FF022C020C0E0C0F0C082C083C007C006C005C004C003C002C001C0009C
:2007B700C0D075D00090E6B9E0FF903A94F090E6B57401F090E6B9E0FF24F35003020B6E6E
:2007D700EFF5F0240B83F582E5F0241183F583E47302B66E366E6ED10305151A2A2F080800
:2007F7000B090B0B090B0B0B0B0B0B90E6B8E0FFBF8002800DBF8102801EBF8202802F02BE
:200817000B6E90E740E4F090E741F090E68AF090E68B7402F0020B6E90E740E4F090E74100
:20083700F090E68AF090E68B7402F0020B6E90E6BCE0FF600FBF01028019BF80028005BF7F
:20085700812F801E90E6A0E0FF53070190E740EFF0803A90E6A1E0FF53070190E740EFF0AC
:20087700802B90E6A2E0FF53070190E740EFF0801C90E6BCE0C31314540324A3F582E43489
:20089700E6F583E0FF53070190E740EFF090E741E4F090E68AF090E68B7402F0020B6E9025
:2008B700E6B8E0FFBF02028003020B6E90E6BAE06003020B6E90E6BCE0FF600FBF01028033
:2008D70016BF80028005BF8126801890E6A0E0FF74FE5FF0020B6E90E6A1E0FF74FE5FF03F
:2008F700020B6E90E6A2E0FF74FE5FF0020B6E90E6BCE0C31314540324A3FEE434E6FF908E
:20091700E6BCE0C31314540324A3F582E434E6F583E0FD5305FE8E828F83EDF0020B6E900C
:20093700E6B8E0FFBF02028003020B6E90E6BAE06003020B6E90E6BCE0FF600FBF010280B2
:2009570015BF80028005BF8123801690E6A0E0FF74014FF0804390E6A1E0FF74014FF08016
:200977003890E6A2E0FF74014FF0802D90E6BCE0C31314540324A3FEE434E6FF90E6BCE0A9
:20099700C31314540324A3F582E434E6F583E0FD4305FE8E828F83EDF090E6BCE05480C47F
:2009B70023541FFF90E6BCE0FE740F5E420790E683EFF074204FF0020B6E90E6BBE0FFBF5C
:2009D70001028019BF02028028BF03028053BF0603020AB5BF0703020AC9020AF87E127F28
:2009F700138F0690E6B3EEF090E6B47412F0020B6E90E680E0FF30E7147E2E7F138F0690B3
:200A1700E6B3EEF090E6B4742EF0020B6E7E5E7F138F0690E6B3EEF090E6B4745EF0020B0E
:200A37006E90E6BAE0FFBF0102800FBF0202801EBF0302802DBF0452803C7582E47EE47F72
:200A5700128F068E107511051206BE020B6E7582E97EE97F128F068E107511211206BE02D4
:200A77000B6E75828A7E8A7F008F068E1075110A1206BE020B6E75820A7E0A7F138F068E8C
:200A9700107511081206BE020B6E7E8E7F138F0690E6B3EEF090E6B4748EF0020B6E7E24DD
:200AB7007F138F0690E6B3EEF090E6B47424F0020B6E90E680E0FF30E7147E5E7F138F06C1
:200AD70090E6B3EEF090E6B4745EF0020B6E7E2E7F138F0690E6B3EEF090E6B4742EF0807B
:200AF7007690E6A0E0FF74014FF0806B806990E740E4F090E68AF090E68B04F0805912068B
:200B170098805490E740E4F090E68AF090E68B04F08044120698803F90E6B8E0FFBF82372A
:200B370090E6BCE0C31314540375F002A42496F582743A35F0F583E4F0A3F090E685E090F2
:200B5700E740F090E684E0FF90E741F090E68AE4F090E68B7402F090E6B8E0FFBF4003029A
:200B77000C62BFC0028003020C9090E6BFE0FE7F0090E6BEE0FD7C00903A91ED4FF0EC4E6E
:200B9700A3F012073A90E6B9E0FFBF22028013BF2803020C3DBF38028025BF3A028049023B
:200BB7000C5790E6B5E4F090E68AF090E68B7428F090E6B3E4F090E6B4746CF0020C90901A
:200BD700E6BBE0FE7F0090E6BAE0FD7C00903A00ED4FF0EC4EA3F090E68AE4F0120592E552
:200BF7008290E68BF0020C90903A02E0FEA3E090E740EEF0903A02E0A3E090E741F0903A6A
:200C170004E090E742F07508007509017582A2120352AF8290E743EFF090E68AE4F090E620
:200C37008B7404F08053903A8F7405F0743AA3F090E68AE4F0120659E58290E68BF080397E
:200C570090E6A0E0FF74014FF0802E90E6BFE0700690E6BEE0601A903A957401F090E68B48
:200C7700E4F0AF9174EF5FF59190E65D7401F0801E12076790E68BE4F0AF9174EF5FF5914E
:200C970090E65D7401F090E6A0E0FF74804FF0D0D0D000D001D002D003D004D005D006D0A8
:200CB70007D083D082D0F0D0E0D02032C0E0C082C083C007C0D075D000AF9174EF5FF59196
:200CD70090E65D7402F0D0D0D007D083D082D0E032C0E0C082C083C007C0D075D000AF91C5
:200CF70074EF5FF59190E65D7404F0D0D0D007D083D082D0E032C0E0C082C083C007C0D0E0
:200D170075D000AF9174EF5FF59190E65D7408F0D0D0D007D083D082D0E032C0E0C082C010
:200D370083C007C0D075D000AF9174EF5FF59190E65D7410F0D0D0D007D083D082D0E032B0
:200D5700C0E0C082C083C007C0D075D000AF9174EF5FF59190E65D7420F0D0D0D007D08312
:200D7700D082D0E032C0E0C082C083C007C0D075D000AF9174EF5FF59190E65D7440F0D098
:200D9700D0D007D083D082D0E032C020C0E0C0F0C082C083C007C006C005C004C003C002BE
:200DB700C001C000C0D075D000C2E812073A903A94E0FFBF2802801ABF38028005BF3A2270
:200DD700802990E68AE4F0120592E58290E68BF0801990E68AE4F0120659E58290E68BF048
:200DF700800990E68AE4F090E68BF0AF9174EF5FF59190E65F7401F0D2E8D0D0D000D001D1
:200E1700D002D003D004D005D006D007D083D082D0F0D0E0D02032C020C0E0C0F0C082C057
:200E370083C007C006C005C004C003C002C001C000C0D075D000C2E8903A95E06020903AF4
:200E570095E4F090E6BFE0FE7F0090E6BEE0FD7C00903A91ED4FF0EC4EA3F0120767120706
:200E77003A903A94E0FFBF390990E68BE0F5821205C690E68BE4F0AF9174EF5FF59190E6DB
:200E97005F7402F0903A91E0F5F0A3E045F0700990E6A0E0FF74804FF0D2E8D0D0D000D003
:200EB70001D002D003D004D005D006D007D083D082D0F0D0E0D02032C0E0C082C083C007FC
:200ED700C0D075D000AF9174EF5FF59190E65F7404F0D0D0D007D083D082D0E032C0E0C003
:200EF70082C083C007C0D075D000AF9174EF5FF59190E65F7408F0D0D0D007D083D082D0C5
:200F1700E032C0E0C082C083C007C0D075D000AF9174EF5FF59190E65F7410F0D0D0D0079F
:200F3700D083D082D0E032C0E0C082C083C007C0D075D000AF9174EF5FF59190E65F742061
:200F5700F0D0D0D007D083D082D0E032C0E0C082C083C007C0D075D000AF9174EF5FF59143
:200F770090E65F7440F0D0D0D007D083D082D0E032C0E0C082C083C007C0D075D000AF91E2
:200F970074EF5FF59190E65F7480F0D0D0D007D083D082D0E03290E680E0FF74084FF0901B
:200FB700E6007412F0900002120263AF8E74F85FF58EC2AFC2E89000437402F090004414EE
:200FD700F090004574B8F090E668E0FF74084FF09001007402F07E9D7F078F05900101EDF6
:200FF700F0900102EEF09001047402F07EC37F0C8F05900105EDF0900106EEF09001087429
:2010170002F07EE87F0C8F05900109EDF090010AEEF090010C7402F07E0D7F0D8F05900113
:201037000DEDF090010EEEF09001107402F07E327F0D8F05900111EDF0900112EEF09001CA
:20105700147402F07E577F0D8F05900115EDF0900116EEF09001187402F07E7C7F0D8F05D9
:20107700900119EDF090011AEEF09001207402F07EA17F0D8F05900121EDF0900122EEF0D3
:201097009001247402F07E2E7F0E8F05900125EDF0900126EEF09001287402F07ECF7F0E30
:2010B7008F05900129EDF090012AEEF090012C7402F07EF47F0E8F0590012DEDF090012E45
:2010D700EEF09001307402F07E197F0F8F05900131EDF0900132EEF09001347402F07E3E14
:2010F7007F0F8F05900135EDF0900136EEF09001387402F07E637F0F8F05900139EDF09006
:20111700013AEEF090013C7402F07E887F0F8F0590013DEDF090013EEEF0AF9174EF5FF5F5
:201137009190E65D747FF090E65CE0FF747F4FF090E65F74FFF090E65EF0D2E8D2AF90E6C1
:201157001174A0F00000000090E61074A0F00000000090E61274E2F00000000090E613740E
:20117700A2F00000000090E614E4F00000000090E615E4F00000000012063B90E680E0FFE1
:2011970074824FF090000A12026390E680E0FF74F75FF022120FAD90E60BE4F0000000001E
:2011B70090E6017480F00000000090E6A3E0FF74FE5FF00000000090E6A4E0FF74FE5FF04A
:2011D7000000000090E618E4F00000000090E619E4F00000000090E6047480F000000000D5
:2011F70090E6047484F00000000090E6047402F00000000090E604E4F00000000090E6953D
:201217007480F00000000090E6957480F00000000090E6A4E0FF20E2F890E694E0FE7F008A
:2012370090E695E0FD7C004207EC4206EF4E70030212D3C3E49F74029E50030212D390E615
:20125700A3E0FD20E3767C007D007A007B00C3EA9FEB9E502C8A8274F42BF583E0F9B96135
:2012770000400EE924854009E924E0F90CBC00010D8A8274F02BF583E9F00ABA00D00B8067
:20129700CD8F03903A8BEBF08E03903A8CEBF08C02903A8DEAF08D04903A8EECF0C007C0DB
:2012B70006C0031205F3D003D006D00790E690EBF0000000007E0090E691EFF0000000007F
:0912D70090E6957480F0021228E3
:2012E4005A5445580066783264656D6F20666F7220455A2D555342206465766963657300AA
:2013040000000000000064656661756C740012010002FFFFFF401A2200010000010203014E
:201324000A060002FFFFFF40010009022E00010104C0320904000004FFFFFF00070581028B
:20134400000200070501020002000705820200020007050402000200000009022E00010195
:2013640004C0320904000004FFFFFF00070581024000000705010240000007058202400077
:1B1384000007050402400000000004030409000000FF000000000000000000E9
:06023500E478FFF6D8FD9D
:20021300790DE94400601B7A01901392789175923AE493F2A308B800020592D9F4DAF27530
:0202330092FF38
:20023B007800E84400600A790075923AE4F309D8FC7891E84400600C7901903A00E4F0A3CB
:04025B00D8FCD9FAF8
:0D0206007581201212E0E582600302020300
:0412E00075820022F1
:00000001FF
