:03020000020206F1
:03025F0002020395
:03020300022420B2
:0400000002020032C6
:01000B0032C2
:0100130032BA
:01001B0032B2
:0100230032AA
:01002B0032A2
:01003300329A
:01003B003292
:01004300328A
:01004B003282
:01005300327A
:01005B003272
:01006300326A
:0101000032CC
:0101040032C8
:0101080032C4
:01010C0032C0
:0101100032BC
:0101140032B8
:0101180032B4
:0101200032AC
:0101240032A8
:0101280032A4
:01012C0032A0
:01013000329C
:010134003298
:010138003294
:01013C003290
:01014000328C
:010148003284
:01014C003280
:01015000327C
:010154003278
:010158003274
:01015C003270
:01016000326C
:01017000325C
:010174003258
:010178003254
:01017C003250
:01018000324C
:010184003248
:010188003244
:01018C003240
:01019000323C
:010194003238
:010198003234
:01019C003230
:0101A000322C
:0101A8003224
:0101AC003220
:0101B000321C
:0101B4003218
:0101B8003214
:2002620022AE82AF837C007D00C3EC9EED9F501B7AB07B04EA24FFF8EB34FFF988028903E0
:20028200E84970F00CBC00E10D80DE22AE82AF837C007D00C3EC9EED9F501B7A0A7B00EA0D
:2002A20024FFF8EB34FFF988028903E84970F00CBC00E10D80DE2275AF0790E67BE090E6BB
:2002C2007CF0DAF32222748345B2FF8FB2740E45B4FF74FE5FF5B4AFB68FB6D287C28190A7
:2002E2003A3CE4F090E6A3E0FF74FE5FF090E6A5E0FF74FE5FF090E60174E3F00000000080
:2003020090E60B7401F00000000090E6047480F00000000090E6047402F00000000090E641
:2003220004E4F00000000090E6187401F00000000090E618740DF00000000090E6207402E5
:20034200F00000000090E621E4F00000000090E6047480F00000000090E6047406F00000FE
:20036200000090E61A7401F00000000090E61A7411F00000000090E604E4F00000000090A3
:20038200E609E4F00000000090E60274CAF000000000900002120263C28722E5821392A1D1
:2003A200D2A2001392A1C2A2001392A1D2A2001392A1C2A2001392A1D2A2001392A1C2A255
:2003C200001392A1D2A2001392A1C2A2227F0090E68BE0FEC3EF9E5036EF2440F582E4347F
:2003E200E7F583E0F582C00712039DD007903A00E0FEBE0411C2A1D2A3D2A2903A00E4F090
:20040200C2A3C2A28006903A00EE04F00F80C022A2A0C2A20013A2A0D2A20013A2A0C2A246
:200422000013A2A0D2A20013A2A0C2A20013A2A0D2A20013A2A0C2A20013A2A0D2A20013DA
:20044200F5822275820022903A3BE0FF7E00C3EE9F5056903A02E07022C2A3C2A2903A01BE
:20046200E0F582C007C00612039DD006D007D2A1D2A3D2A2903A01E02401F0903A02E0046B
:200482005403F0EE2440FCE434E7FDC007C006C005C004120412AB82D004D005D006D00708
:2004A2008C828D83EBF00E80A590E68AE4F090E68BEFF0227F00BFFF00500B90E678E0FED4
:2004C20020E0030F80F090E678E0FF20E204EF20E10D90E678E0FF74404FF0758201227579
:2004E2008200227F00BFFF00500B90E678E0FE20E0030F80F090E678E0FF30E20D90E67896
:20050200E0FF74404FF075820122758200227F0090E678E0FE20E204758200220FBFFF009D
:2005220040EE758201227F0090E678E0FE20E604758200220FBFFF0040EE75820122AF82BD
:20054200C3E49508E433FE90E678E0FD74804DF0C007C006120510D006D00790E679EFF015
:20056200C007C0061204B6E582D006D0077014E509600C90E678E0FD74404DF012052875BE
:20058200820022EE601090000AC007C00612028ED006D00780B1E509600990E678E0FF7418
:2005A200404FF075820122AE82AF837D00E50C7003F582227508647509007582A2C007C045
:2005C20006C005120540E582D005D006D00760030206B8AC0B90E679ECF0C007C006C00517
:2005E2001204B6E582D005D006D00760030206B890E679E50AF0C007C006C0051204B6E550
:2006020082D005D006D00760030206B890E678E0FC74404CF0C007C006C00512052890E6F0
:2006220078E0FC74804CF012051090E67974A3F01204B6E582D005D006D007707990E6798A
:20064200E08E828F83F0C007C006C0051204E5E582D005D006D007705DFCC3EC950C502ADD
:2006620090E679E08E828F83F0A3AE82AF83C007C006C005C0041204E5E582D004D005D0A1
:2006820006D00770310C8C0580D090E678E0FF74204FF090E679E0C0051204E5E582D00582
:2006A200701490E678E0FF74404FF090E679E0C005120528D0058D8222AE82AF837D00E557
:2006C2000F7003F582227508647509007582A2C007C006C005120540E582D005D006D00773
:2006E200600302077DAC0E90E679ECF0C007C006C0051204B6E582D005D006D0076003021E
:20070200077D90E679E50DF0C007C006C0051204B6E582D005D006D0077060FCC3EC950F5C
:2007220050498E828F83E090E679F08E828F83E0FBA3AE82AF83903A07E02BF0903A05E0C0
:20074200FAA3E0FB903A0574012AF0E43BA3F0C007C006C005C0041204B6E582D004D0051D
:20076200D006D00770150C8C0580B190E678E0FF74404FF0C005120528D0058D8222903AE3
:200782003BE0FF903A03E0F50AA3E0F50B8F0C90E740C0071205A9AE82D0077D00903A03E4
:2007A200E0FBA3E0FC903A03EF2BF0ED3CA3F08E8222AF82903A03E0F50DA3E0F50E8F0F14
:2007C20090E740C0071206BBD0077E00903A03E0FCA3E0FD903A03EF2CF0EE3DA3F022AEE2
:2007E20082AF837D00E5117003F582227508647509007582A6C007C006C005120540E582B8
:20080200D005D006D00760030208D390E679E510F0C007C006C0051204B6E582D005D00610
:20082200D00760030208D390E678E0FC74404CF0C007C006C00512052890E678E0FC748096
:200842004CF012051090E67974A7F01204B6E582D005D006D007707990E679E08E828F83AA
:20086200F0C007C006C0051204E5E582D005D006D007705DFCC3EC9511502A90E679E08E5B
:20088200828F83F0A3AE82AF83C007C006C005C0041204E5E582D004D005D006D00770315E
:2008A2000C8C0580D090E678E0FF74204FF090E679E0C0051204E5E582D005701490E6786C
:2008C200E0FF74404FF090E679E0C005120528D0058D8222AE82AF837D00E5137003F582AA
:2008E200227508647509007582A6C007C006C005120540E582D005D006D00760030209C90F
:2009020090E679E512F0C007C006C0051204B6E582D005D006D00760030209C9AC127B0088
:20092200C3EB951340030209B98E828F83E0FAA3AE82AF8390E679EAF0C007C006C005C07C
:2009420004C0031204B6E582D003D004D005D006D00770730C8C120B8B05EC20E3C2C3EBEB
:20096200951350BC90E678E0FA74404AF0C007C006C005C004C00312052875086475090094
:200982007582A6120540E582D003D004D005D006D007703390E679ECF0C007C006C005C051
:2009A20004C0031204B6E582D003D004D005D006D007701302092290E678E0FF74404FF0A2
:2009C200C005120528D005903A08E512F08D8222903A3BE0FF903A08E0F5108F1190E74060
:2009E200C0071207E1AE82D007903A08E02FF08E8222AA82D2A6000000C2A6DAF722A2A4E5
:200A0200D2A633C2A6A2A4D2A633C2A6A2A4D2A633C2A6A2A4D2A633C2A6A2A4D2A633C203
:200A2200A6A2A4D2A633C2A6A2A4D2A633C2A6A2A4D2A633C2A6F5822275820022AA16A2EF
:200A4200A4D2A633C2A6A2A4D2A633C2A6A2A4D2A633C2A6A2A4D2A633C2A6A2A4D2A633E1
:200A6200C2A6A2A4D2A633C2A6A2A4D2A633C2A6A2A4D2A633C2A6F0A3DAC422E582339282
:200A8200A7D2A633C2A692A7D2A633C2A692A7D2A633C2A692A7D2A633C2A692A7D2A633D2
:200AA200C2A692A7D2A633C2A692A7D2A633C2A692A7D2A600C2A622AA16E03392A7D2A675
:200AC20033C2A692A7D2A633C2A692A7D2A633C2A692A7D2A633C2A692A7D2A633C2A692B7
:200AE200A7D2A633C2A692A7D2A633C2A692A7D2A6A3C2A6DAC422D2A57582081209F4C22B
:200B0200A522D2A57582080209F4903A167405F0120AF9758205120A7E7E007F00C007C01F
:200B220006120A00E582D006D00730E02E8E028F037C007D00C3EA94FFEB94FFEC9400EDF9
:200B4200648094805015758200C007C0061209F4D006D0070EBE00C50F80C2120A00E58291
:200B620030E0047F0280027F00903A11EFF0120B04903A11E0F58222AE82AF8320A50A90ED
:200B82003A117404F075820422ADB474EF5DF5B443B4E0C007C006120B0CE582D006D00718
:200BA2006007903A11E0F58222903A0BE0FCA3E07D00EC24F8FCED34FFFD8CF005F08006AF
:200BC200EE2EFEEF33FFD5F0F7903A16740BF0C007C006120AF975820B120A7ED006D007E2
:200BE2008F82C007C006120A7ED006D0078E82120A7E758200120A7E7582081209F47582CE
:200C0200002275820022020B04120B04903A1EE4F0120B0CE5826007903A11E0F5822290CE
:200C22003A167406F0120AF9758206120A7E120B04903A167402F0120AF9758202120A7E3D
:200C4200903A1BE0A3E0F582120A7E903A1BE0FEA3E08E82120A7E758200120A7E758200C1
:200C620022AF82903A1EE06012C007120C0BE582D0076007903A11E0F582228F82120A7E51
:200C8200903A1DE02401F0E07015903A1BE02401F0A3E03400F0120B04903A1E7401F075AD
:200CA200820022AE82AF83903A1EE06016C007C006120C0BE582D006D0076007903A11E002
:200CC200F58222903A1DE0FDE0700C8514168E828F83120ABA8060EDF4FD0DE5146006C3C5
:200CE200ED951450488D168E828F83C007C006C005120ABAD005D006D007E514C39DF514F3
:200D0200903A1BE02401F0A3E03400F0903A1DE4F0ED2EFEE43FFFC007C006120C0BE5823D
:200D2200D006D0076007903A11E0F582228514168E828F83120ABA903A1DE0FF2514F0E0D3
:200D42007015903A1BE02401F0A3E03400F0120B04903A1E7401F075820022AE82AF832082
:200D6200A50A903A117404F075820422ADB474EF5DF5B443B4E0C007C006120B0CE582D0D4
:200D820006D0076007903A11E0F58222903A1FEEF0EFA3F0903A0BE0FCA3E07D00EC24F8B7
:200DA200FCED34FFFD8CF005F08006EE2EFEEF33FFD5F0F7903A1BEEF0EFA3F0903A1DE41A
:200DC200F0903A167406F0C007C006120AF9758206120A7E120B04D006D007903A15E09081
:200DE2003A16F0C007C006120AF9D006D007903A15E0F582C007C006120A7ED006D0078FC9
:200E020082C007C006120A7ED006D0078E82120A7E758200120A7E120B04903A1E7401F0D1
:200E220075820022120B0475820022020B04120B04903A1FE0FEA3E0FF8E828F83A3020D0E
:200E42005D90E671E4F0903A0A04F0903A11E4F0903A0B7410F07480A3F0903A1574D8F016
:200E6200AFB474EF5FF5B443B4E0D2A57582001209F4903A167490F0120AF9758290120AC2
:200E82007E7582181209F4120A00E582903A13F0120B04903A16749FF0120AF975829F12A3
:200EA2000A7E751603903A17120A3F120B04903A19E0FFBF10004040EF24E7403B903A1756
:200EC200E0903A12F0903A18E0903A14F0903A19E024F0FF8FF005F07F017E008006EF2FE8
:200EE200FFEE33FED5F0F7903A0DEFF0EEA3F0EE3395E0A3F0A3F022903A0AE4F0903A117E
:200F02007407F0AFB4741F5FF5B422903A3BE0F51690E740120A3F903A21E0FFBF020E9019
:200F22003A39E0FEA3E0FF4E7003020B0422903A3BE0F51490E740120CA5903A22E0FFBFF6
:200F4200020E903A39E0FEA3E0FF4E7003020B042275B68075B10090000112026375B60024
:200F6200903A2AE4F022E5B120E00C75B68075B10090000112026375B600903A2AE4F022F5
:200F820090E6017480F00000000090E671E4F090E672F0903A2BE5B4F0903A2A747BF0AF61
:200FA200B4746F5FF5B443B440D2A675B6BC75B10890000212026375B188C2A67E007F00B0
:200FC200E5B120E1208E028F037C007D00C3EA94FFEB94FFEC9400ED6480948050070EBEF7
:200FE20000DE0F80DBE5B130E1047FC880027F64903A28EFF0903A24E4F0A3F0A3F0A3F004
:20100200903A23F0220202C8E5B130E1047F1680027F0B903A28E0FE2FF07F00D2A6C2A669
:201022000FBF400040F643B104D2A6C2A6D2A6C2A6D2A6C2A6D2A6C2A675B600903A2BE0F2
:20104200F5B4E5B130E0030210072285B31575B3FF903A3BE0FE903A24E0FAA3E0FBA3E0E1
:20106200FCA3E0FD8E0079007E007F00903A24E82AF0E93BA3F0EE3CA3F0EF3DA3F090E655
:201082008BE06022FA759B40759AE775AF07903A23E0F990E67BE0F590D2A629F9C2A6DAFE
:2010A200F5903A23E9F08515B390E68BE0FFBF4000500302100A2290E60174C2F090E6F3B0
:2010C200E4F090E6C3F090E6C1F090E6C27404F090E6C0744EF090E6F4E4F0759B3D7E3D1C
:2010E2007F3A8F068E9A759E607E607FE48F068E9DC0027A201202B9D00290E6C6E4F09069
:20110200E6C77410F090E6C8E4F090E6C9F090E6CAF090E6CBF090E6CCF090E6CDF090E62F
:201122000B04F00000000090E6047480F00000000090E6047406F00000000090E61AE4F008
:201142000000000090E61A7410F00000000090E604E4F00000000090E6E27401F00000007E
:201162000090E6CE7401F00000000090E6CFE4F00000000090E6D0E4F00000000090E6D14A
:20118200E4F00000000090E6E474FFF000000000AFB474BF5FF5B475B19022E582FF700F61
:2011A200E5B130E00A903A297401F075820122903A29E4F0AFB4AEB4741F5EF5B475B69822
:2011C20075B100900001C00712026375B180900032120263D0077E007C007D00C3EC941098
:2011E200ED94275033BEFA00502EE5B120E02930A505EE04FB80027B008B06900001C00720
:20120200C006C005C004120263D004D005D006D0070CBC00C70D80C4E5B130E009C0071248
:201222001007D007801375B118900001C007120263D007903A297404F075B6008FB4D2A507
:20124200903A29E0F58222903A09E0605675101A751104903A2C1207E1903A2EE0FEA3E045
:20126200FF4E603F903A2CE0FCA3E0FDC3EC9EED9F40048C068D071EBEFF011F903A0BE03B
:20128200FCA3E07D00EC24F4FCED34FFFD8CF005F08007C3EF13FFEE13FED5F0F68E828F1E
:2012A20083A322900000120B7A7F00BF08005016C007120A00AE82D007EF90242993FDEEDD
:2012C200B505030F80E5BF0802801A7E00903A0BE0FCA3E0FDECC39FF582ED9EF583120CE3
:2012E2000890000022120A00AF82C007120A00AE82903A0BE0FCA3E0FDEC24F6F582ED3403
:20130200FFF583C006120C08D006D0078E05E4FEFCEF4206EC42058E828D83A322903A0928
:20132200E0602F75101A751104903A301207E1903A32E0FEA3E0FF4E6018903A30E0FEA382
:20134200E0FF4E60030213E1903A297403F075820322900000120B7AE582600A903A297430
:2013620002F0758202227F00BF08005016C007120A00AE82D007EF90242993FDEEB50503C1
:201382000F80E5BF080280207E00903A0BE0FCA3E0FDECC39FF582ED9EF583120C08903A07
:2013A200297403F075820322120A00AF82C007120A00AE82D007EE4207903A0BE0FDA3E0DC
:2013C200FEED24F6F582EE34FFF583C007120C08D007EF700A903A297403F07582032275DE
:2013E200820012119DAF82903A29EFF0BF0105121007800FBF040C75820012119DE58290AC
:0A1402003A29F0903A29E0F5822221
:20006C0028015A5445580A100000000167100000000000000000000000000000000030300E
:08008C003030303030303030EC
:20140C002290E683E4F07420F003F07430F07401F07421F07411F07431F07412F07432F0C6
:20142C007406F07426F022AF82E51724E0500375171F90E6BFE0701090E6BEE0FEC3951745
:20144C00500690E6BEE0F51775AF078F9B85169A7E407FE7EE04F59E7E407FE70EBE0001E6
:20146C000F8F9D90E67C7403F090E67BE0FF7E00BF00028015C3EE9517500F90E67CEFF09B
:20148C00E4F090E67BE0FF0E80E60EEE2EFE90E740F090E7417403F090E68AE4F090E68B65
:2014AC00EEF022903A39E0FEA3E0FFC374409EE49F50067C407D0080048E048F05903A3BE7
:2014CC00ECF07D00903A39EEC39CF0EF9DA3F022903A7DE0FFBF310302159BBF3203021550
:2014EC009EBF34030215AABF35030215BFBF39028037BF3C028056BF4202805ABF600280BC
:20150C0008BF620280190215DFD28790E6BAE060012290E6BCE0900002120263C287229003
:20152C003A00E4F0C2A3C2A222903A07E4F0903A05F0A3F090E6BBE0FE7F0090E6BAE0FD14
:20154C007C00903A03ED4FF0EC4EA3F02290E6BAE0903A08F02290E6BDE0FF903A22F0EF4A
:20156C0060012290E6BBE0FE7F0090E6BAE07C004FF582EC4EF583120D5DE582605E90E633
:20158C00A0E0FF74014FF0903A39E4F0A3F022020F53903A2AE0FFBF7B0122020F82120F38
:2015AC008290E6A5E0FF74FE5FF090E6F574FFF00210B975B18843B44090E6F574FFF00096
:2015CC0000000090E601E0FF74F05FF00000000002100A90E6A0E0FF74014FF022C020C06F
:2015EC00E0C0F0C082C083C007C006C005C004C003C002C001C000C0D075D00090E6B9E0CA
:20160C00FF903A7DF090E6B57401F090E6B9E0FF24F350030219BAEFF5F0240B83F582E5C9
:20162C00F0241183F583E4734E02BA82BABA1D4F516166767B1617191719191819191919A7
:20164C00191990E6B8E0FFBF8002800DBF8102801EBF8202802F0219BA90E740E4F090E7C8
:20166C0041F090E68AF090E68B7402F00219BA90E740E4F090E741F090E68AF090E68B7469
:20168C0002F00219BA90E6BCE0FF600FBF01028019BF80028005BF812F801E90E6A0E0FFD4
:2016AC0053070190E740EFF0803A90E6A1E0FF53070190E740EFF0802B90E6A2E0FF530790
:2016CC000190E740EFF0801C90E6BCE0C31314540324A3F582E434E6F583E0FF53070190FA
:2016EC00E740EFF090E741E4F090E68AF090E68B7402F00219BA90E6B8E0FFBF02028003CD
:20170C000219BA90E6BAE060030219BA90E6BCE0FF600FBF01028016BF80028005BF81269C
:20172C00801890E6A0E0FF74FE5FF00219BA90E6A1E0FF74FE5FF00219BA90E6A2E0FF7483
:20174C00FE5FF00219BA90E6BCE0C31314540324A3FEE434E6FF90E6BCE0C31314540324CF
:20176C00A3F582E434E6F583E0FD5305FE8E828F83EDF00219BA90E6B8E0FFBF0202800373
:20178C000219BA90E6BAE060030219BA90E6BCE0FF600FBF01028015BF80028005BF812320
:2017AC00801690E6A0E0FF74014FF0804390E6A1E0FF74014FF0803890E6A2E0FF74014FFE
:2017CC00F0802D90E6BCE0C31314540324A3FEE434E6FF90E6BCE0C31314540324A3F582BA
:2017EC00E434E6F583E0FD4305FE8E828F83EDF090E6BCE05480C423541FFF90E6BCE0FEF6
:20180C00740F5E420790E683EFF074204FF00219BA90E6BBE0FFBF01028019BF020280283C
:20182C00BF03028053BF0603021901BF07030219150219447E607F248F0690E6B3EEF0901C
:20184C00E6B47460F00219BA90E680E0FF30E7147E7C7F248F0690E6B3EEF090E6B4747CF6
:20186C00F00219BA7EAC7F248F0690E6B3EEF090E6B474ACF00219BA90E6BAE0FFBF01024E
:20188C00800FBF0202801EBF0302802DBF0452803C7582317E317F248F068E1675170512B4
:2018AC0014330219BA7582367E367F248F068E167517211214330219BA75828A7E8A7F0060
:2018CC008F068E1675170A1214330219BA7582577E577F248F068E167517081214330219F8
:2018EC00BA7EDC7F248F0690E6B3EEF090E6B474DCF00219BA7E727F248F0690E6B3EEF01B
:20190C0090E6B47472F00219BA90E680E0FF30E7147EAC7F248F0690E6B3EEF090E6B474DF
:20192C00ACF00219BA7E7C7F248F0690E6B3EEF090E6B4747CF0807690E6A0E0FF74014F38
:20194C00F0806B806990E740E4F090E68AF090E68B04F0805912140D805490E740E4F0904C
:20196C00E68AF090E68B04F0804412140D803F90E6B8E0FFBF823790E6BCE0C31314540378
:20198C0075F002A4247FF582743A35F0F583E4F0A3F090E685E090E740F090E684E0FF9079
:2019AC00E741F090E68AE4F090E68B7402F090E6B8E0FFBF4003021CF1BFC0028003021D87
:2019CC001F90E6BFE0FE7F0090E6BEE0FD7C00903A39ED4FF0EC4EA3F01214AF90E6B9E0DD
:2019EC00FFBF2202804ABF3003021C85BF3303021CCFBF3803021B2DBF3A03021B56BF3B0B
:201A0C0003021B95BF3D03021BAEBF4003021BCEBF4103021C0ABF4303021C58BF61028006
:201A2C002CBF6303021AD2BF6403021AE7021CE690E6B5E4F090E68AF090E68B7428F09022
:201A4C00E6B3E4F090E6B4746CF0021D1FC28090E6BCE0F4FF903A3CE0520790E6BAE0FE41
:201A6C0090E6BCE0FD5E903A3C4FF0C28143B208903A3CE0139283D28000139283C280009E
:201A8C00139283D28000139283C280AFB274F75FF5B2D2810000000000000000E500A28327
:201AAC00D2803300A283C2803300A283D2803300A2833390E740F0C28190E68AE4F090E6C5
:201ACC008B04F0021D1F903A02E4F090E6BCE0903A01F0C2A2120449021D1F90E7407401A3
:201AEC00F090E7417406F090E7427402F090E74323F090E744E4F090E745F090E746F09064
:201B0C00E747F090E68AF0903A3BE0FF24F7500990E68B7408F0021D1F90E68BEFF0021DA9
:201B2C001F90E6BBE0FE7F0090E6BAE0FD7C00903A03ED4FF0EC4EA3F090E68AE4F01207B0
:201B4C0080E58290E68BF0021D1F903A05E0FEA3E090E740EEF0903A05E0A3E090E741F0C4
:201B6C00903A07E090E742F07508007509017582A2120540AF8290E743EFF090E68AE4F075
:201B8C0090E68B7404F0021D1F90E6BAE0903A08F090E68AE4F01209D2E58290E68BF002A5
:201BAC001D1F7508007509017582A6120540AF8290E740EFF090E68AE4F090E68B04F0025B
:201BCC001D1F903A11E0700920A506903A117404F0759B0A7E0A7F3A8F068E9A759E407E92
:201BEC00407FE78F068E9DC0027A081202B9D00290E68AE4F090E68B7408F0021D1F90E69B
:201C0C00BDE0FF903A21F0EF702E90E6BBE0FE7F0090E6BAE07C004FF582EC4EF583120B05
:201C2C007AE582601390E6A0E0FF74014FF0903A39E4F0A3F0021D1F120F0D90E68AE4F0F1
:201C4C00903A3BE0FF90E68BF0021D1F759B117E117F3A8F068E9A759E407E407FE78F0633
:201C6C008E9DC0027A0A1202B9D00290E68AE4F090E68B740AF0021D1F759B237E237F3A3A
:201C8C008F068E9A759E417E417FE78F068E9DC0027A071202B9D002E5B130E00790E740FC
:201CAC00E4F0800C90E7407401F075B600120F5390E7487401F090E68AE4F090E68B740987
:201CCC00F0805090E7407406F090E741E4F090E68AF090E68B7402F0803990E6A0E0FF7412
:201CEC00014FF0802E90E6BFE0700690E6BEE0601A903A7E7401F090E68BE4F0AF9174EFAC
:201D0C005FF59190E65D7401F0801E1214DC90E68BE4F0AF9174EF5FF59190E65D7401F065
:201D2C0090E6A0E0FF74804FF0D0D0D000D001D002D003D004D005D006D007D083D082D0BE
:201D4C00F0D0E0D02032C0E0C082C083C007C0D075D000AF9174EF5FF59190E65D7402F033
:201D6C00D0D0D007D083D082D0E032C0E0C082C083C007C0D075D000AF9174EF5FF5919080
:201D8C00E65D7404F0D0D0D007D083D082D0E032C0E0C082C083C007C0D075D000AF917419
:201DAC00EF5FF59190E65D7408F0D0D0D007D083D082D0E032C0E0C082C083C007C0D07515
:201DCC00D000AF9174EF5FF59190E65D7410F0D0D0D007D083D082D0E032C0E0C082C08335
:201DEC00C007C0D075D000AF9174EF5FF59190E65D7420F0D0D0D007D083D082D0E032C09E
:201E0C00E0C082C083C007C0D075D000AF9174EF5FF59190E65D7440F0D0D0D007D083D01C
:201E2C0082D0E032C020C0E0C0F0C082C083C007C006C005C004C003C002C001C000C0D0D1
:201E4C0075D000C2E81214AF903A7DE0FFBF3003021EE4BF3303021EE4BF38028033BF3AF8
:201E6C0003021EE4BF3B028038BF3D02806ABF40028065BF41028039BF4302805BBF610211
:201E8C008056BF63028005BF6445804C120449804790E68AE4F0120780E58290E68BF08018
:201EAC003790E68AE4F01209D2E58290E68BF08027903A3BE06008903A11E4F0120F0D9065
:201ECC00E68AE4F0903A3BE0FF90E68BF0800990E68AE4F090E68BF0AF9174EF5FF5919077
:201EEC00E65F7401F0D2E8D0D0D000D001D002D003D004D005D006D007D083D082D0F0D001
:201F0C00E0D02032C020C0E0C0F0C082C083C007C006C005C004C003C002C001C000C0D052
:201F2C0075D000C2E8903A7EE06020903A7EE4F090E6BFE0FE7F0090E6BEE0FD7C00903AF9
:201F4C0039ED4FF0EC4EA3F01214DC1214AF903A7DE0FFBF3103021FDDBF3203021FDABFA7
:201F6C003403021FDDBF35028067BF39028017BF3C02801DBF4202802CBF60028053BF6254
:201F8C00501203CF804B90E68BE0F5821207B48040903A08E0F51290E68BE0F51390E740F8
:201FAC001208D6802C903A3BE06026903A11E4F0120F30903A11E06018120B0490E6A0E0C4
:201FCC00FF74014FF0903A39E4F0A3F0800312104D90E68BE4F0AF9174EF5FF59190E65FB4
:201FEC007402F0903A39E0F5F0A3E045F0700990E6A0E0FF74804FF0D2E8D0D0D000D00153
:20200C00D002D003D004D005D006D007D083D082D0F0D0E0D02032C0E0C082C083C007C0D6
:20202C00D075D000AF9174EF5FF59190E65F7404F0D0D0D007D083D082D0E032C0E0C082DA
:20204C00C083C007C0D075D000AF9174EF5FF59190E65F7408F0D0D0D007D083D082D0E000
:20206C0032C0E0C082C083C007C0D075D000AF9174EF5FF59190E65F7410F0D0D0D007D049
:20208C0083D082D0E032C0E0C082C083C007C0D075D000AF9174EF5FF59190E65F7420F0DB
:2020AC00D0D0D007D083D082D0E032C0E0C082C083C007C0D075D000AF9174EF5FF591903D
:2020CC00E65F7440F0D0D0D007D083D082D0E032C0E0C082C083C007C0D075D000AF917498
:2020EC00EF5FF59190E65F7480F0D0D0D007D083D082D0E032751000751103903A34120724
:20210C00E1903A34E0FFBF43028003022198903A35E0FFBF4476903A36E0FFBF306E903A56
:20212C00097401F075101075110A90008A1207E1751020751105903A341207E1903A34E0E6
:20214C00FF6030BFFF02802B903A35E0FF6024BFFF02801F759B347E347F3A8F068E9A75D7
:20216C009E687E687F248F068E9DC0027A041202B9D002903A38E0601875102475112090EC
:20218C0024361207E1902456E4F08005903A09E4F07F00EF248AF582E43400F583E0FEBE16
:2021AC0030550FBF0A0040EB7510FB751105903A341207E17F007E00EE2434F582E4343A7C
:2021CC00F583E0FDEF248AFBE43400FCEDC4540F9024E093FA8B828C83F00FEF248AFBE426
:2021EC003400FC740F5D9024E093FD8B828C83F00F0EBE050040C12290E680E0FF74084FF0
:20220C00F090E6007412F0900002120263AF8E74F85FF58E120F68903A2974FFF0C2AFC230
:20222C00E89000437402F090004414F090004574B8F090E668E0FF74084FF0900100740229
:20224C00F07EE97F158F05900101EDF0900102EEF09001047402F07E527F1D8F0590010582
:20226C00EDF0900106EEF09001087402F07E777F1D8F05900109EDF090010AEEF090010C4F
:20228C007402F07E9C7F1D8F0590010DEDF090010EEEF09001107402F07EC17F1D8F059084
:2022AC000111EDF0900112EEF09001147402F07EE67F1D8F05900115EDF0900116EEF0906B
:2022CC0001187402F07E0B7F1E8F05900119EDF090011AEEF09001207402F07E307F1E8FB8
:2022EC0005900121EDF0900122EEF09001247402F07E107F1F8F05900125EDF0900126EE9A
:20230C00F09001287402F07E237F208F05900129EDF090012AEEF090012C7402F07E487F36
:20232C00208F0590012DEDF090012EEEF09001307402F07E6D7F208F05900131EDF0900130
:20234C0032EEF09001347402F07E927F208F05900135EDF0900136EEF09001387402F07EFE
:20236C00B77F208F05900139EDF090013AEEF090013C7402F07EDC7F208F0590013DEDF0AC
:20238C0090013EEEF0AF9174EF5FF59190E65D747FF090E65CE0FF747F4FF090E65F74FF1B
:2023AC00F090E65EF0D2E8D2AF90E61174A0F00000000090E61074A0F00000000090E61285
:2023CC0074E0F00000000090E613E4F00000000090E61474A0F00000000090E615E4F00063
:2023EC00000000120E43903A0AE070099000FA120263120E4312210112131F90E680E0FF90
:19240C0074824FF090000A12026390E680E0FF74F75FF02212220480FE0A
:202429005A544558425301015A544558005553422D46504741204D6F64756C6520322E31FA
:20244900362064656661756C74204657000064656661756C74000012010002FFFFFF401A2A
:202469002200010000010203010A060002FFFFFF40010009022E00010104C032090400009B
:2024890004FFFFFF00070581020002000705010200020007058202000200070506020002E8
:2024A90000000009022E00010104C0320904000004FFFFFF000705810240000007050102F6
:2024C9004000000705820240000007050602400000000004030409303132333435363738A7
:2024E90039414243444546000000000001880101010101070207020202020200200000003D
:2025090000000020003600000000003F02019001010101070202070202020200200000004C
:1625290000000020000036000000003FFF00000000000000000008
:06023500E478FFF6D8FD9D
:20021300794EE94400601B7A019024F1783975923AE493F2A308B800020592D9F4DAF275D7
:0202330092FF38
:20023B007800E84400600A790075923AE4F309D8FC7839E84400600C7901903A00E4F0A323
:04025B00D8FCD9FAF8
:0D020600758120122425E5826003020203A9
:04242500758200229A
:00000001FF
